S0150000417474696E79383134436F64652E737265637E
S113000019C033C032C031C030C02FC02EC030C080
S11300102CC02BC02AC029C028C027C026C025C098
S113002024C074C122C021C020C01FC01EC01DC076
S11300301CC01BC011241FBECFEFCDBFDFE3DEBF4A
S11300401EE3A0E0BEE3E2E6F6E102C005900D92F5
S1130050AE33B107D9F72EE3AEE3BEE301C01D9280
S1130060A138B207E1F751D0F7CACACFA8D1C7C0A7
S11300701F920F920FB60F9211248F9381E08093F9
S113008053018F910F900FBE0F901F901895CF9230
S1130090DF92EF92FF9225D1F2D080E090E027D159
S11300A087FF1FC0C12CD12C76018FE493EC0197FC
S11300B0F1F700C000008AE090E013D1E0D09FEF98
S11300C0C91AD90AE90AF90A80E090E010D187FD3B
S11300D0ECCF81E091E9C91691E0D906E104F1047D
S11300E008F080E0FF90EF90DF90CF900895E0E576
S11300F0F0E08081897F8260808380818160808359
S1130100889580818E7F80830895B0DF10924A3E67
S1130110C1E080914A3E882319F08130B9F0FBCFC9
S113012080E490E0B4DF882379F0C0934A3E81E014
S113013085D1289A2FEB84ED91E0215080409040A6
S1130140E1F700C000002898D2DFE3CF88E090E018
S11301509EDF8823C9F310924A3E80E06FD1299A2A
S11301602FEB84ED91E0215080409040E1F700C0F6
S113017000002998E9CFECE5FEE38081826080836A
S1130180089587FF02C081E007C086FD03C0109276
S11301903E3E08958F708E5F80933E3E089588E5BD
S11301A09EE366D960E070E08DE29EE3CBD960E027
S11301B070E08DE29EE3E5D943E55EE360E088E12B
S11301C09EE3C5C1E091183EF091193E808187FFFE
S11301D008C0E0915A3EF0915B3E80818460808348
S11301E0089581E080933F3E08959091410192FDEE
S11301F0FCCF90E080934A0190934B01089580E2F4
S1130200F4DFE4E1F4E08081877F8083ECE5FEE3C2
S1130210108284E19EE38183928380E19EE3838361
S1130220948388E09EE3858396838CE09EE38783B2
S1130230908780E09EE38187928784E09EE38387B2
S1130240948782E898E0858796878FEC90E087878B
S1130250908B81EC90E0818B928B8BEB90E0838B85
S1130260948B158A168A82EE90E0878B908FCF014B
S113027050D54AD580935A3E90935B3E0895E091C1
S11302805A3EF0915B3E808180FF0BC080E09FD599
S1130290811107C0E0915A3EF0915B3E80818E7FD0
S11302A08083E0915A3EF0915B3E808181FF0EC0D5
S11302B0DDD5811102C0E2D502C080E862DFE091A1
S11302C05A3EF0915B3E80818D7F8083E0915A3E5F
S11302D0F0915B3E808182FF03C08B7F81608083CD
S11302E00895ECE5FEE320812160208325C126E00A
S11302F0AC01249FC001259F900D1124E0911C3E68
S1130300F0911D3EE80FF91F808108951F920F920E
S11303100FB60F9211242F933F934F935F936F93D4
S11303207F938F939F93AF93BF93EF93FF936AD978
S1130330FF91EF91BF91AF919F918F917F916F91B9
S11303405F914F913F912F910F900FBE0F901F908F
S1130350189580E0089542E068ED88E790E06AD05F
S113036040E068ED81E690E065D040E068ED80E62D
S113037090E060D08091630080FDFCCF80E0089520
S1130380789480E00895E0E1F4E0808188608193CE
S1130390E83184E0F807C9F7E0E3F4E0808188609D
S11303A08193E83384E0F807C9F7E0E5F4E080815D
S11303B088608193E83584E0F807C9F70895E3DF9E
S11303C00098E0E1F4E08081886080830298E2E1B3
S11303D0F4E08081886080830398E3E1F4E0808125
S11303E0886080830598E5E1F4E0808188608083FB
S11303F00698E6E1F4E08081886080830798E7E16D
S1130400F4E0808188608083209A2898219A299832
S11304102298E2E3F4E08081886080832398E3E318
S1130420F4E080818860808396DF80E007D0A8DFD5
S113043015D08FCFFC0164BF408308959091510182
S11304409111FCCF91E090935201811102C081E59A
S113045001C089E38093500180E0089583E0809394
S1130460500080E00895CF92DF92FF920F931F9384
S1130470CF93DF93EC01AE81BF81EB01CC0FDD1F85
S1130480C60FD71FCA0FDB1FFA80FC0144815581B8
S1130490E6E0E69F9001E79F300D11248A01020FE8
S11304A0131FF80122813381F90121813281F8017E
S11304B004811581201B310BE8812E1B3109EC01CD
S11304C0EA81FB8100811181FA0140E050E040178C
S11304D0510739F146175707F9F012968C91129784
S11304E0F8121AC0808185588230E8F0C480D58023
S11304F082819381EC0189819A81C816D90660F4BE
S11305008C199D09CC91D0E0C817D90728F48C1B0D
S11305109D0B2817390738F04F5F5F4F13963696B7
S1130520D6CF80E001C081E0DF91CF911F910F9180
S1130530FF90DF90CF9008952091403E3091413E4E
S1130540820F931F8093403E9093413E08950097FD
S1130550D9F041155105C1F026E0629FB001112484
S1130560DC011496ED91FC911597E60FF71F21E03D
S1130570208314968D919C911597FC01E60FF71F2B
S11305804283538380E008958BE008952F923F9235
S11305904F925F926F927F928F929F92AF92BF928F
S11305A0CF92DF92EF92FF920F931F93CF93DF933B
S11305B0009709F47BC3EC01A12CB12C812C912C64
S11305C0212CD12C33E0C32E45E8642E56E8752E39
S11305D067E0362E72E0472EE8E05E2EEA81FB816A
S11305E0808191818816990608F0A3C17501EE0CEB
S11305F0FF1C0C811D810E0D1F1DD8018C918430B0
S113060009F4A1C038F4823001F108F049C0813006
S113061059F088C1853809F4C0C0863809F4F4C09B
S1130620873009F07FC135C1D8011296ED91FC9154
S1130630139780818E7109F067C14C928C819D81E2
S1130640FC01EE0DFF1D51825FC1F80121812223BF
S113065029F10280F381E02D253020F081819281FF
S1130660D8010EC0D80114968D919C9115974181A3
S113067052818417950769F04817590730F4019798
S113068014968D939C93159704C00196F801848366
S113069095832150D80111962C9336C1F8012FC1AE
S11306A0D80114962D913C91159712968D919C9199
S11306B01397DC0111964D915C911297241735071D
S11306C009F430C18E819F8142175307E0F4241B43
S11306D0350BDC01AA0DBB1D8C9190E0058002C096
S11306E0959587950A94E2F799272817390708F40E
S11306F019C18481882309F415C1F8013082EA8183
S1130700FB81248119C0FC01EA0DFB1D421B530B24
S1130710808190E04817590708F404C18281882336
S113072029F0B401CE019FDE8111FCC0E4E0D801C0
S1130730EC93EA81FB8122818C819D81FC01EE0D89
S1130740FF1D2183E1C0D80114962D913C9115978A
S11307501296ED91FC9113978181928182179307F0
S113076008F4D6C0EE81FF81EA0DFB1D821B930BBA
S1130770208130E02817390708F0AEC08281882331
S113078029F0B401CE016FDE8111CCC0F801818162
S1130790882309F467C08150B6C0A881B9818085D7
S11307A013968C93EC81FD81EE0DFF1D44815581E0
S11307B0A281B38111968D919C911297841795070C
S11307C0C0F0AE81BF81AA0DBB1D6C91262F30E015
S11307D011967C917F5F02C0359527957A95E2F753
S11307E0841B950B621B262F30E02817390708F469
S11307F097C07082EA81FB8122818C819D81FC01FA
S1130800EE0DFF1D218342C0D80114966D917C9199
S113081015971296ED91FC91139721813281261739
S1130820370758F411968C911197811102C0CC921C
S113083077C08150F801818373C0EE81FF81EA0D96
S1130840FB1D8081482F50E091819F5F02C0559528
S113085047959A95E2F7261B370B841B90E0821785
S1130860930760F4D8016C92EA81FB8123818C8127
S11308709D81FC01EE0DFF1D218352C0F801818191
S1130880811102C0C0824CC08150818322242394F0
S11308903BC0D80114962D913C91159712968D91D9
S11308A09C911397DC0111968D919C91129782175C
S11308B0930768F5281B390BAE81BF81AA0DBB1DB8
S11308C08C9190E0058002C0959587950A94E2F793
S11308D099272817390718F4F801C0821AC0D801DB
S11308E011968C91119781110CC081E08C938C81AD
S11308F09D81FC01EE0DFF1D0280F381E02DC0827D
S113090011C08150F8018183DD24D3940BC0D80138
S1130910CC928C819D81FC01EE0DFF1D118202C0E1
S113092022242394BFEF8B1A9B0AE3E0AE0EB11C82
S113093055CEE881F981808187FF23C040E050E0F3
S113094020E030E0EA81FB8180819181281739071A
S113095098F4EC81FD81E40FF51FA281B3818C91A1
S113096080FD05C09081977F11F081608C932F5F8B
S11309703F4F4A5F5F4FE6CFE881F98180818F77EF
S11309808083D11007C0E881F98121106FC0808174
S11309908E7F6EC0EA81FB8181858823A1F3E88183
S11309A0F981808180688083EA81FB81818581303F
S11309B051F740E050E020E030E096E0D92EEA81A3
S11309C0FB816081718126173707E8F60C811D8150
S11309D0FA01EE0FFF1FE00FF11F8081982F977F20
S11309E0A1F1853811F08330B1F5EE80FF80D70195
S11309F0A40FB51F1296BC90BB2039F180E090E0A3
S1130A00C12C86179707F8F428173907D1F0D89E18
S1130A10D001D99EB00D1124A00FB11FAC91A43008
S1130A2011F0A63871F4DC01AA0FBB1FA80FB91F7F
S1130A30AE0DBF1D1296AC91BA1203C0CB01CC24EB
S1130A40C3940196DECFC11006C00280F381E02D6D
S1130A5080818E7F05C00280F381E02D80818160DA
S1130A6080832F5F3F4F4D5F5F4FA9CF80818160AF
S1130A7080838091403E9091413EE881F9812181BB
S1130A803281A90148535F4F4817590738F4821B34
S1130A90930BAA24A394A3E0BA2E44C0821793070D
S1130AA010F080E004C1821B930B0197893C9105EF
S1130AB0C0F3EFCF885C9109E881F981218132810B
S1130AC028533F4F218332832381211196C02481EF
S1130AD0222311F021502483E881F98125812223E6
S1130AE011F0215025838A809B80D40116962C9185
S1130AF0169721111BC08A809B80F4012781211144
S1130B0048C0EA81FB812381222361F020E030E0A8
S1130B10A0E0B0E0EA81FB8140815181A417B507D0
S1130B2008F46EC0893C910528F6BBCF0881198171
S1130B30F80124812111DFCFED90FC9060E070E09A
S1130B4040E050E04E155F05F1F0EC81FD81E60FC9
S1130B50F71F2081233011F0283081F4248135815E
S1130B60C280D380D6011196CD90DC9012972C15BB
S1130B703D0520F42F5F3F4F248335834F5F5F4F44
S1130B806A5F7F4FDFCFF4012681D80114962C933E
S1130B90B2CF08811981D80115962C912111B1CFBA
S1130BA0E080F18060E070E040E050E04E155F05C9
S1130BB0F1F0EC81FD81E60FF71F2081233011F065
S1130BC0283081F424813581C280D380D6011196E6
S1130BD0CD90DC901297C216D30620F4215031092F
S1130BE0248335834F5F5F4F6A5F7F4FDFCFF4010C
S1130BF02781D80115962C9384CF2150238381CF4C
S1130C00A901440F551FEC81FD81E40FF51F60819C
S1130C10653809F047C06181662319F0615061832A
S1130C2041C0A0826C817D81FB01E40FF51F02802D
S1130C30F381E02DB082EE81FF81E20FF31FD280B9
S1130C40DD2081F140E050E000E010E0EA81FB812A
S1130C50608171810617170728F5EE81FF81E40F83
S1130C60F51F6281D61219C0BA01660F771FEC8195
S1130C70FD814F01860E971EF401E280F380F70197
S1130C80F080F0FE0AC0F401A082EC81FD81E60F41
S1130C90F71F0280F381E02DB0820F5F1F4F4D5F7D
S1130CA05F4FD4CF11962D5F3F4F34CF8BE0DF9150
S1130CB0CF911F910F91FF90EF90DF90CF90BF9055
S1130CC0AF909F908F907F906F905F904F903F90E8
S1130CD02F90089595E09093443EE0917B3EF091EF
S1130CE07C3E0188F289E02D309709F00994FFCF0A
S1130CF0E0917B3EF0917C3E0388F489E02D3097AF
S1130D0009F0099480E4E6CF80917B3E90917C3E8B
S1130D100895CF9380937B3E90937C3E8091443E94
S1130D20853039F0823028F08091423E882371F179
S1130D3040C01092423EC0E0A0917B3EB0917C3E08
S1130D408C2F90E0880F991F1196ED91FC911297CA
S1130D50E80FF91F0190F081E02D309729F31796E1
S1130D602D913C911897D901A80FB91F8D919C9191
S1130D700995882329F08091423E8F5F8093423EFB
S1130D80CF5F8091423E8823B9F2CECF82E0809338
S1130D90443EE0917B3EF0917C3E0784F089E02D57
S1130DA0309711F0099508C085E08093443E81E0B6
S1130DB001C08F5F8093423E8091423E882329F098
S1130DC01092423E80E8CF9185CFCF9108951F9332
S1130DD0CF93DF93182FA0917B3EB0917C3E159664
S1130DE02D913C911697D0E0F901ED0FF11DED0F17
S1130DF0F11D80819181892B11F0DF5FF5CF53962E
S1130E008D919C915497892B49F1812F90E0880F03
S1130E10991FF901E80FF91F0190F081E02D309737
S1130E20E9F01B962D913C911C97D901A80FB91F8D
S1130E308D919C91009791F068E776E00995C82F11
S1130E40811106C083E08093443E1092433E03C068
S1130E5082E08093443E1D1720F001C0C2E082E886
S1130E6039DF8C2FDF91CF911F910895E0917B3E64
S1130E70F0917C3E0584F685E02D09941F93CF9371
S1130E80DF931F92CDB7DEB71982E0917B3EF091DC
S1130E907C3E0588F689E02D309749F082E0809306
S1130EA0443ECE010196099583E08093443E8091AF
S1130EB0423E81112CC01981111129C084E0809314
S1130EC0443EA0917B3EB0917C3E8091433E90E0B5
S1130ED0880F991F1396ED91FC911497E80FF91F51
S1130EE00190F081E02D19962D913C911A9730973D
S1130EF081F0D901A80FB91F8D919C910995811199
S1130F003DC08091433E8F5F8093433EDACF10E033
S1130F103CC01092433EF901E10FF11DE10FF11DB8
S1130F200190F081E02D309759F00190F081E02D8F
S1130F30808187FF03C09C9194609C931F5FEBCFDB
S1130F401093433E82E08093443E5796ED91FC918A
S1130F505897309711F0099505C08091423E8F5FF4
S1130F608093423E10E08091423E882371F01092BB
S1130F70423E8091433E8064ADDE07C08091423E94
S1130F808F5F8093423E13E0EECF812F0F90DF916D
S1130F90CF911F9108958091483E9091493EA09130
S1130FA07D3EB0917E3EED91FC911197408151813F
S1130FB025E0289FB001299F700D112420E030E026
S1130FC084179507A8F41496ED91FC911597E20FF8
S1130FD0F31FE60FF71FE0812B5F3F4FE0FD02C0D8
S1130FE00196EECF8093483E9093493E80E0089569
S1130FF01092483E1092493E81E00895BC01E09170
S11310007D3EF0917E3E86E0869F9001879F300D65
S11310101124A281B381A20FB31F11968C918093E6
S11310202A06A281B381A20FB31F8C918093260656
S113103095E0969FA001979F500D1124A481B5813E
S1131040A40FB51F13968C9180931A06A481B581C1
S1131050A40FB51F14968C9180931B06A481B581AF
S1131060A40FB51F8C9181FD9C9384819581DC0133
S1131070A40FB51F8C918C7169F4A281B381A20F66
S1131080B31F1496AC91A295AF70B0E0A45AB946C0
S11310908C9101C08FE380931C06A281B381A20FBF
S11310A0B31F12968C918B3110F48C5F01C08FE1C9
S11310B080930506A281B381A20FB31F15968C916C
S11310C080930106A281B381A20FB31F13968C9162
S11310D082958F708093190682819381FC01E20FBF
S11310E0F31F83818F7080618093020680911806BC
S11310F083608093180681E88093000681E08093E2
S1131100080608953F924F925F926F927F928F925A
S11311109F92AF92BF92CF92DF92EF92FF920F9382
S11311201F93CF93DF938091473E882309F448C1EE
S1131130A0917D3EB0917E3EC0907F3ED090803E97
S113114000E010E060E070E0E12CF12C80E033245A
S11311503394D1E84D2E88248A94992493946D90E5
S11311607C901197F30120813181E216F30608F097
S113117023C1E601299139916E011496ED91FC91F8
S11311801597E60FF71F40814C7150E0569547952F
S1131190569547954115510521F041305105B9F057
S11311A002C11296CD91DC911397C00FD11F4C81CF
S11311B04F709D81491710F4941B01C090E002C048
S11311C0369527959A95E2F721833283EDC01296DE
S11311D04D915C911397400F511FEA010D8002C09D
S11311E0369527950A94E2F721833283A380B4804D
S11311F02115D2E03D0720F02F5F314091E005C07A
S1131200A401421B530B9A0190E0E3015A80D0E4FD
S11312105D1205C036952795992319F009C09923C5
S113122039F04FEFA416B40631F440828EE007C0C3
S11312307724739401C0712C2A30310590F41496EC
S1131240ED91FC911597E60FF71F908197FF30827F
S11312501496ED91FC911597E60FF71FA382B482C3
S1131260A3C0E501CD2FDD27C295CF709C2FA5012A
S113127044275F70652EA501407F552752954295FE
S11312804F7045275F7045275A2D5F70A52EC430D7
S113129030F09370D695C795D695C7959C0F71106D
S11312A03CC050E8550D523010F456E007C053E0EE
S11312B005C0951768F49F5F2F5C3109203D310507
S11312C0C0F706C0CFE06C1649F06394255131098C
S11312D026313105B8F7DFE06D120EC0951720F402
S11312E09F5FD5E06D2E08C0CFE06C2E05C04F3057
S11312F049F04F5F2250310923303105C0F74F3098
S113130009F065C04FE0641681F1639445E05FC065
S1131310992361F091502F5C3109203D3105C0F7CC
S113132005C0662041F06A94255131092631310502
S1131330C0F761100DC0992321F091505AE0652E39
S113134007C0612C05C0442341F0415022503109AB
S113135023303105C0F7411110C06620E9F16A94C9
S11313604AE023303105C8F608C059132FC0233092
S1131370310540F14FE0A42E4FE0943018F0990F5E
S1131380990F9950C0E14C9FA001112456294A2974
S1131390C92FD0E0DC2FCC27D295D07F4C2B5D2BEE
S11313A04383548301C0FFCFDFEFED1AFD0A6B5F67
S11313B07F4F0A5F1F4FD3CE92E09093473E0EC0FB
S11313C083E00CC04FE02FE0A22ED7CF4FE02330B4
S11313D0310508F073CFD1CF40E0CFCFDF91CF916B
S11313E01F910F91FF90EF90DF90CF90BF90AF903F
S11313F09F908F907F906F905F904F903F90089553
S1131400CF93DC01892B79F1ED91FC9111976081E7
S1131410718140E050E020E030E090E0261737078B
S113142079F01296ED91FC911397E40FF51FC081AA
S113143081818C2B982B2F5F3F4F4A5F5F4FEECFFC
S1131440992399F08091473E811106C0909322061A
S113145081E08093473E05C080912206982B9093AB
S1131460220680E003C08BE001C082E0CF910895A2
S1131470009731F080937F3E9093803E80E0089502
S11314808BE008956115710591F1009781F1209128
S1131490473E222371F1243071F180937D3E909375
S11314A07E3E6093453E7093463E20EC20931806A2
S11314B0DC01ED91FC912281203421F42091180665
S11314C0206205C0203841F4209118062862209338
S11314D0180610921E0613C0213879F420911806BC
S11314E028622093180626E820931E0608C08BE085
S11314F0089583E0089581E0089582E00895DC0171
S1131500ED91FC918481803108F080E180930306A1
S113151081E080930B0680930A061092483E109255
S1131520493E39DD81110AC084E08093473E8091B1
S1131530483E9091493E62DD80E0089582E08093C8
S1131540473E08950097C9F0DC01ED91FC91119795
S1131550208131812617370790F045E0469F90019E
S1131560479F300D11241496ED91FC911597E20FCD
S1131570F31F81E0808380E008958BE0089582E08A
S11315800895FC01892BD1F1A081B1818D919C91A9
S1131590119786179707A0F112969C910480F58104
S11315A0E02D903459F485E0869FD001879FB00DDB
S11315B01124AE0FBF1F84E392E00DC09058923007
S11315C080F485E0869FD001879FB00D1124AE0F73
S11315D0BF1F87E695E013968D939C93149780E044
S11315E001C082E095E0969F9001979F300D1124F1
S11315F0E20FF31F90819260908308958BE0089529
S113160082E0089510920006409110065091110650
S11316108091483E9091493E9C01220F331FE091F6
S11316207F3EF091803EE20FF31F40835183019689
S11316308093483E9093493EAEDC811108C084E01B
S11316408093473E8091483E9091493ED7CCE091AB
S10F1650453EF091463E0994F894FFCF0B
S109165C3F1C0B05030115
S1131662183E00002D3E0000420A00002D3E0000FC
S1131672C6020000000A00004C3E233E753E203E96
S113168214010001000400050014051401393E335D
S11116923E533E0001000200030100803000C0
S9030000FC
