:1000000019C033C032C031C030C02FC02EC030C084
:100010002CC02BC02AC029C028C027C026C025C09C
:100020004EC0D1C322C021C020C01FC01EC01DC0F1
:100030001CC01BC011241FBECFEFCDBFDFE3DEBF4E
:100040001EE3A0E0BEE3EAEAFBE102C005900D92E8
:10005000A235B107D9F72EE3A2E5BEE301C01D9298
:10006000A23BB207E1F72BD19BCDCACF0ED4EDC294
:100070001F920F920FB60F9211242F933F934F931D
:100080005F936F937F938F939F93AF93BF93EF9300
:10009000FF934DD386D081E080935301FF91EF9180
:1000A000BF91AF919F918F917F916F915F914F9190
:1000B0003F912F910F900FBE0F901F9018951F9298
:1000C0000F920FB60F9211242F933F934F935F938C
:1000D0006F937F938F939F93AF93BF93EF93FF9310
:1000E00081E0809377064FD0FF91EF91BF91AF9160
:1000F0009F918F917F916F915F914F913F912F9140
:100100000F900FBE0F901F90189581E08093533E83
:10011000089580917A3E813071F410927A3E289A47
:100120002FE53AEE90E0215030409040E1F700C0DA
:10013000000028980EC081E080937A3E299AFFE55E
:100140002AEE30E0F15020403040E1F700C00000DE
:100150002998E7EAF1E63197F1F700C0000090E254
:100160009093003E80935E3E0895E0E5F0E090813C
:10017000997F892B808380818160808388958081AD
:100180008E7F80830895289A2FE58AEE90E0215093
:1001900080409040E1F700C00000289884E090E0A3
:1001A000E4CF80917B3E813049F48091633E909111
:1001B000643E01968093633E9093643E80915E3EE0
:1001C000813049F480915C3E90915D3E0196809330
:1001D0005C3E90935D3E80915C3E90915D3E853F9C
:1001E000914030F010925C3E10925D3E10925E3E67
:1001F00080917A3E811124C080915F3E9091603E53
:10020000A091613EB091623E0196A11DB11D813267
:100210002FEB920722E0A207B10548F480935F3EDE
:100220009093603EA093613EB093623E0895109219
:100230005F3E1092603E1092613E1092623E69CF26
:1002400008954091563E5091573E9C01241B350B1A
:10025000B90137FF04C066277727621B730B66342A
:1002600071054CF4643171055CF0840F951F97FDA6
:100270000196959587958093543E9093553E0FC077
:10028000E9E0E49FB001E59F700D1124860F971FF0
:100290006AE070E05EDC6093543E7093553E80915E
:1002A000543E9091553E8093563E9093573E809198
:1002B0005E3E813011F420E030E0C9010895D6DEC1
:1002C00010927B3E299A2FE58AEE90E021508040E3
:1002D0009040E1F700C00000299881E080937A3EC9
:1002E00019E0CAE0D0E0F1D18091673E882309F49B
:1002F000DBC080E090E031D27C0180E090E03AD237
:10030000A701481B590B2091583E3091593EBA0124
:10031000621B730BCB0177FF04C088279927861BCC
:10032000970B863491058CF01616170614F092E0A0
:1003300001C091E040935A3E50935B3E1092523E72
:100340001092723E1092733E69C0E091523E449703
:100350000CF445C0CA01820F931F97FD0196959535
:10036000879580935A3E90935B3E81E08E0F8093F9
:10037000523EF0E0EE0FFF1FEE58F14C60837183A8
:10038000843010F01092523E2091723E3091733EB4
:100390008091743E9091753E820F931F2091763E1E
:1003A0003091773E820F931F2091783E3091793EB5
:1003B000820F931F9C0197FF04C022273327281B1D
:1003C000390B263431053CF11092523E1092723EA8
:1003D0001092733E1816190604F192E01FC0129F86
:1003E000C001139F900D1124840F951FBE01B1DB36
:1003F00060935A3E70935B3E81E08E0F8093523E35
:10040000F0E0EE0FFF1FEE58F14C108211828430A5
:1004100010F01092523E90E001C091E020915A3EBF
:1004200030915B3E2093583E3093593E80915E3E22
:100430008130D1F180917B3E882319F0813031F0F9
:100440002BC0913049F590937B3E26C0923081F4C9
:100450002091633E3091643E81E02734310508F4F9
:1004600080E01092633E1092643E10927B3E15C075
:10047000913029F41092633E1092643E0DC0809139
:10048000633E9091643E893E934030F01092633E0B
:100490001092643E10927B3E80E01092673E109274
:1004A000533E813009F435DE8091533E81111BCFDC
:1004B000299A84E090E059DE299815CF0895CF93CA
:1004C000C82F31D28823E9F38C2F3BD232D281114D
:1004D000FDCFCF9108950F931F93CF93DF9300D05B
:1004E000CDB7DEB78091653E8F7041F085E5E7DFDF
:1004F0008091653EE4DF19821A8248C001E01EE364
:10050000FEE304311F0791F3F80181918F01D7DFDA
:10051000F7CF89819A8121D1192FD1DF812FCFDFA8
:1005200089819A8127D1192FCADF812FC8DF89815C
:100530009A8113D18C0189819A811CD19801281B41
:10054000390BC9017EDE192FBADF812FB8DF89810F
:100550009A811DD1192FB3DF812FB1DF89819A8153
:1005600023D187FF19C081E0AADF89819A81FC012C
:10057000EE0FFF1F8E0F9F1FFC01EC5CF14C808182
:100580009EDF89819A81019689839A8389819A81E4
:10059000892B09F4BECF02C080E0E6CF8091663E91
:1005A0008EDF8091653E91E0980F9093653E87DFE6
:1005B0008AEA85DF0F900F90DF91CF911F910F9105
:1005C0000895EDE8FEE38081826080830895E091E4
:1005D0002C3EF0912D3E808187FF08C0E0918B3E3C
:1005E000F0918C3E80818460808303C081E08093A1
:1005F000673E71CF87FF02C081E007C086FD03C060
:100600001092663E04C08F708E5F8093663E63CF0B
:1006100089E89EE3AAD960E070E081E49EE30FDA06
:1006200060E070E081E49EE329DA44E85EE360E0A4
:100630008CE29EE309C29091410192FDFCCF90E0D3
:1006400080934A0190934B01089580E2F4DFE4E146
:10065000F4E08081877F8083EDE8FEE3108288E20A
:100660009EE38183928384E29EE3838394838CE17F
:100670009EE38583968380E29EE38783908784E16F
:100680009EE38187928788E19EE3838794878FEF3B
:100690009AE08587968788E093E08787908B8AEF3A
:1006A00092E0818B928B81EE92E0838B948B158A02
:1006B000168A87EE92E0878B908FCF01A7D5A1D5C0
:1006C00080938B3E90938C3EF9CEE0918B3EF091DF
:1006D0008C3E808180FF0BC080E0F6D5811107C081
:1006E000E0918B3EF0918C3E80818E7F8083E09103
:1006F0008B3EF0918C3E808181FF0EC034D68111FB
:1007000002C039D602C080E875DFE0918B3EF091DF
:100710008C3E80818D7F8083E0918B3EF0918C3E7A
:10072000808182FF03C08B7F8160808308958091E8
:10073000833E8F5F8093833E9091003E981760F4D4
:100740001092833EE2DC80918D3E816080938D3EED
:100750008091003E90E06DC1089525E0AC01249F9A
:10076000C001259F900D1124FC01EC57F14C8181B3
:100770009281089526E0AC01249FC001259F900D31
:100780001124FC01EA55F14C84819581089525E0FE
:10079000AC01249FC001259F900D1124FC01EC5752
:1007A000F14C83819481089526E0AC01249FC0011F
:1007B000259F900D1124E091303EF091313EE80FDD
:1007C000F91F808108951F920F920FB60F92112486
:1007D0002F933F934F935F936F937F938F939F9349
:1007E000AF93BF93EF93FF938AD9FF91EF91BF919E
:1007F000AF919F918F917F916F915F914F913F91B9
:100800002F910F900FBE0F901F90189580E00895C4
:1008100042E068ED88E790E063D041E068ED81E672
:1008200090E05ED040E068ED80E690E059D08091A5
:10083000630080FDFCCF80E00895789480E0089507
:10084000E0E1F4E0808188608193E83184E0F8079A
:10085000C9F7E0E3F4E0808188608193E83384E0C5
:10086000F807C9F7E0E5F4E0808188608193E83516
:1008700084E0F807C9F708952398E3E3F4E0808162
:10088000877F8083229A2A9844C0DADF0098E0E1CB
:10089000F4E08081886080830298E2E1F4E0808166
:1008A000886080830398E3E1F4E08081886080833E
:1008B0000598E5E1F4E08081886080830698E6E1B0
:1008C000F4E0808188608083209A2898219A299872
:1008D0009FDF81E009D03CD0CFDFAFDF15D096CFCE
:1008E000FC0164BF40830895809151018111FCCFC8
:1008F0001092470181E2809350011092550181E0EE
:100900008093520180E0089583E08093500080E05E
:100910000895E0E0F8E08BE591E08087918780E43E
:10092000868380E008958091040885FB882780F9FC
:1009300008958091040886FB882780F991E0892733
:1009400008959091040895FFFCCF809302080895C4
:1009500084E08093A00081E08093A10080E008956E
:10096000CF92DF92FF920F931F93CF93DF93EC010F
:10097000AE81BF81EB01CC0FDD1FC60FD71FCA0FA1
:10098000DB1FFA80FC0144815581E6E0E69F90017F
:10099000E79F300D11248A01020F131FF8012281F5
:1009A0003381F90121813281F80104811581201BF5
:1009B000310BE8812E1B3109EC01EA81FB810081BA
:1009C0001181FA0140E050E04017510739F1461714
:1009D0005707F9F012968C911297F8121AC080817D
:1009E00085588230E8F0C480D58082819381EC0103
:1009F00089819A81C816D90660F48C199D09CC9119
:100A0000D0E0C817D90728F48C1B9D0B281739078D
:100A100038F04F5F5F4F13963696D6CF80E001C017
:100A200081E0DF91CF911F910F91FF90DF90CF90E8
:100A300008952091683E3091693E820F931F809304
:100A4000683E9093693E08950097D9F0411551058D
:100A5000C1F026E0629FB0011124DC011496ED91F3
:100A6000FC911597E60FF71F21E0208314968D91D6
:100A70009C911597FC01E60FF71F4283538380E09A
:100A800008958BE008952F923F924F925F926F925C
:100A90007F928F929F92AF92BF92CF92DF92EF920E
:100AA000FF920F931F93CF93DF93009709F47BC3BB
:100AB000EC01A12CB12C812C912C212CD12C33E0D8
:100AC000C32E45E8642E56E8752E67E0362E72E098
:100AD000472EE8E05E2EEA81FB81808191818816B5
:100AE000990608F0A3C17501EE0CFF1C0C811D8155
:100AF0000E0D1F1DD8018C91843009F4A1C038F46B
:100B0000823001F108F049C0813059F088C1853840
:100B100009F4C0C0863809F4F4C0873009F07FC1F9
:100B200035C1D8011296ED91FC91139780818E7199
:100B300009F067C14C928C819D81FC01EE0DFF1D77
:100B400051825FC1F8012181222329F10280F381C2
:100B5000E02D253020F081819281D8010EC0D8018E
:100B600014968D919C911597418152818417950718
:100B700069F04817590730F4019714968D939C93A8
:100B8000159704C00196F801848395832150D801FC
:100B900011962C9336C1F8012FC1D80114962D91CE
:100BA0003C91159712968D919C911397DC011196AB
:100BB0004D915C9112972417350709F430C18E814D
:100BC0009F8142175307E0F4241B350BDC01AA0D6B
:100BD000BB1D8C9190E0058002C0959587950A9485
:100BE000E2F799272817390708F419C18481882367
:100BF00009F415C1F8013082EA81FB81248119C012
:100C0000FC01EA0DFB1D421B530B808190E048174D
:100C1000590708F404C18281882329F0B401CE0168
:100C20009FDE8111FCC0E4E0D801EC93EA81FB81F6
:100C300022818C819D81FC01EE0DFF1D2183E1C08D
:100C4000D80114962D913C9115971296ED91FC9137
:100C50001397818192818217930708F4D6C0EE81A1
:100C6000FF81EA0DFB1D821B930B208130E02817CA
:100C7000390708F0AEC08281882329F0B401CE0183
:100C80006FDE8111CCC0F8018181882309F467C02F
:100C90008150B6C0A881B981808513968C93EC8170
:100CA000FD81EE0DFF1D44815581A281B381119616
:100CB0008D919C91129784179507C0F0AE81BF81EA
:100CC000AA0DBB1D6C91262F30E011967C917F5FA1
:100CD00002C0359527957A95E2F7841B950B621B28
:100CE000262F30E02817390708F497C07082EA8170
:100CF000FB8122818C819D81FC01EE0DFF1D2183F2
:100D000042C0D80114966D917C9115971296ED9181
:100D1000FC911397218132812617370758F41196D9
:100D20008C911197811102C0CC9277C08150F8014B
:100D3000818373C0EE81FF81EA0DFB1D8081482F06
:100D400050E091819F5F02C0559547959A95E2F7D3
:100D5000261B370B841B90E08217930760F4D801A1
:100D60006C92EA81FB8123818C819D81FC01EE0DD7
:100D7000FF1D218352C0F8018181811102C0C08210
:100D80004CC081508183222423943BC0D801149607
:100D90002D913C91159712968D919C911397DC01A2
:100DA00011968D919C9112978217930768F5281BD5
:100DB000390BAE81BF81AA0DBB1D8C9190E00580DF
:100DC00002C0959587950A94E2F799272817390765
:100DD00018F4F801C0821AC0D80111968C911197AD
:100DE00081110CC081E08C938C819D81FC01EE0D02
:100DF000FF1D0280F381E02DC08211C08150F801F7
:100E00008183DD24D3940BC0D801CC928C819D8149
:100E1000FC01EE0DFF1D118202C022242394BFEFBE
:100E20008B1A9B0AE3E0AE0EB11C55CEE881F98126
:100E3000808187FF23C040E050E020E030E0EA817D
:100E4000FB81808191812817390798F4EC81FD811D
:100E5000E40FF51FA281B3818C9180FD05C09081C4
:100E6000977F11F081608C932F5F3F4F4A5F5F4FF8
:100E7000E6CFE881F98180818F778083D11007C028
:100E8000E881F98121106FC080818E7F6EC0EA8178
:100E9000FB8181858823A1F3E881F98180818068C5
:100EA0008083EA81FB818185813051F740E050E009
:100EB00020E030E096E0D92EEA81FB8160817181EB
:100EC00026173707E8F60C811D81FA01EE0FFF1F88
:100ED000E00FF11F8081982F977FA1F1853811F0E5
:100EE0008330B1F5EE80FF80D701A40FB51F1296B5
:100EF000BC90BB2039F180E090E0C12C86179707A9
:100F0000F8F428173907D1F0D89ED001D99EB00D3A
:100F10001124A00FB11FAC91A43011F0A63871F4C8
:100F2000DC01AA0FBB1FA80FB91FAE0DBF1D129683
:100F3000AC91BA1203C0CB01CC24C3940196DECF8E
:100F4000C11006C00280F381E02D80818E7F05C034
:100F50000280F381E02D8081816080832F5F3F4F8D
:100F60004D5F5F4FA9CF8081816080838091683E13
:100F70009091693EE881F98121813281A90148532C
:100F80005F4F4817590738F4821B930BAA24A39488
:100F9000A3E0BA2E44C08217930710F080E004C18A
:100FA000821B930B0197893C9105C0F3EFCF885CBE
:100FB0009109E881F9812181328128533F4F2183B2
:100FC00032832381211196C02481222311F02150E4
:100FD0002483E881F9812581222311F02150258382
:100FE0008A809B80D40116962C91169721111BC0E4
:100FF0008A809B80F4012781211148C0EA81FB810E
:101000002381222361F020E030E0A0E0B0E0EA811B
:10101000FB8140815181A417B50708F46EC0893C5B
:10102000910528F6BBCF08811981F801248121118F
:10103000DFCFED90FC9060E070E040E050E04E15B6
:101040005F05F1F0EC81FD81E60FF71F2081233071
:1010500011F0283081F424813581C280D380D601FB
:101060001196CD90DC9012972C153D0520F42F5F42
:101070003F4F248335834F5F5F4F6A5F7F4FDFCFE2
:10108000F4012681D80114962C93B2CF08811981DE
:10109000D80115962C912111B1CFE080F18060E04C
:1010A00070E040E050E04E155F05F1F0EC81FD810D
:1010B000E60FF71F2081233011F0283081F42481BE
:1010C0003581C280D380D6011196CD90DC901297E5
:1010D000C216D30620F421503109248335834F5F93
:1010E0005F4F6A5F7F4FDFCFF4012781D8011596EC
:1010F0002C9384CF2150238381CFA901440F551F06
:10110000EC81FD81E40FF51F6081653809F047C06F
:101110006181662319F06150618341C0A0826C81B6
:101120007D81FB01E40FF51F0280F381E02DB08289
:10113000EE81FF81E20FF31FD280DD2081F140E0DC
:1011400050E000E010E0EA81FB81608171810617C8
:10115000170728F5EE81FF81E40FF51F6281D61293
:1011600019C0BA01660F771FEC81FD814F01860E11
:10117000971EF401E280F380F701F080F0FE0AC0D0
:10118000F401A082EC81FD81E60FF71F0280F3815C
:10119000E02DB0820F5F1F4F4D5F5F4FD4CF119690
:1011A0002D5F3F4F34CF8BE0DF91CF911F910F9197
:1011B000FF90EF90DF90CF90BF90AF909F908F9077
:1011C0007F906F905F904F903F902F90089595E0A3
:1011D00090936C3EE091AC3EF091AD3E0188F28977
:1011E000E02D309709F00994FFCFE091AC3EF091EB
:1011F000AD3E0388F489E02D309709F0099480E42E
:10120000E6CF8091AC3E9091AD3E0895CF93809310
:10121000AC3E9093AD3E80916C3E853039F082308B
:1012200028F080916A3E882371F140C010926A3E96
:10123000C0E0A091AC3EB091AD3E8C2F90E0880F05
:10124000991F1196ED91FC911297E80FF91F0190EB
:10125000F081E02D309729F317962D913C91189746
:10126000D901A80FB91F8D919C910995882329F068
:1012700080916A3E8F5F80936A3ECF5F80916A3E25
:101280008823B9F2CECF82E080936C3EE091AC3EF1
:10129000F091AD3E0784F089E02D309711F009956B
:1012A00008C085E080936C3E81E001C08F5F809331
:1012B0006A3E80916A3E882329F010926A3E80E857
:1012C000CF9185CFCF9108951F93CF93DF93182FA0
:1012D000A091AC3EB091AD3E15962D913C911697E4
:1012E000D0E0F901ED0FF11DED0FF11D808191812D
:1012F000892B11F0DF5FF5CF53968D919C91549718
:10130000892B49F1812F90E0880F991FF901E80F8F
:10131000F91F0190F081E02D3097E9F01B962D9197
:101320003C911C97D901A80FB91F8D919C910097F2
:1013300091F065EF78E00995C82F811106C083E030
:1013400080936C3E10926B3E03C082E080936C3EB3
:101350001D1720F001C0C2E082E839DF8C2FDF9139
:10136000CF911F910895E091AC3EF091AD3E058480
:10137000F685E02D09941F93CF93DF931F92CDB78D
:10138000DEB71982E091AC3EF091AD3E0588F6895A
:10139000E02D309749F082E080936C3ECE010196BB
:1013A000099583E080936C3E80916A3E81112CC048
:1013B0001981111129C084E080936C3EA091AC3E4C
:1013C000B091AD3E80916B3E90E0880F991F1396CF
:1013D000ED91FC911497E80FF91F0190F081E02D39
:1013E00019962D913C911A97309781F0D901A80F49
:1013F000B91F8D919C91099581113DC080916B3EE3
:101400008F5F80936B3EDACF10E03CC010926B3E52
:10141000F901E10FF11DE10FF11D0190F081E02DC7
:10142000309759F00190F081E02D808187FF03C053
:101430009C9194609C931F5FEBCF10936B3E82E076
:1014400080936C3E5796ED91FC915897309711F030
:10145000099505C080916A3E8F5F80936A3E10E0D7
:1014600080916A3E882371F010926A3E80916B3EB3
:101470008064ADDE07C080916A3E8F5F80936A3ED4
:1014800013E0EECF812F0F90DF91CF911F91089540
:101490008091703E9091713EA091AE3EB091AF3E72
:1014A000ED91FC9111974081518125E0289FB00179
:1014B000299F700D112420E030E084179507A8F4CF
:1014C0001496ED91FC911597E20FF31FE60FF71FAD
:1014D000E0812B5F3F4FE0FD02C00196EECF80938D
:1014E000703E9093713E80E008951092703E10928D
:1014F000713E81E00895BC01E091AE3EF091AF3EB7
:1015000086E0869F9001879F300D1124A281B381D0
:10151000A20FB31F11968C9180932A06A281B381EA
:10152000A20FB31F8C918093260695E0969FA00191
:10153000979F500D1124A481B581A40FB51F139658
:101540008C9180931A06A481B581A40FB51F1496BF
:101550008C9180931B06A481B581A40FB51F8C913B
:1015600081FD9C9384819581DC01A40FB51F8C9132
:101570008C7169F4A281B381A20FB31F1496AC9150
:10158000A295AF70B0E0AC55B4468C9101C08FE32A
:1015900080931C06A281B381A20FB31F12968C9177
:1015A0008B3110F48C5F01C08FE180930506A2811E
:1015B000B381A20FB31F15968C9180930106A2816F
:1015C000B381A20FB31F13968C9182958F70809375
:1015D000190682819381FC01E20FF31F83818F70D2
:1015E00080618093020680911806836080931806BC
:1015F00081E88093000681E08093080608953F9279
:101600004F925F926F927F928F929F92AF92BF9212
:10161000CF92DF92EF92FF920F931F93CF93DF93BE
:1016200080916F3E882309F448C1A091AE3EB091ED
:10163000AF3EC090B03ED090B13E00E010E060E020
:1016400070E0E12CF12C80E033243394D1E84D2E6E
:1016500088248A94992493946D907C901197F30137
:1016600020813181E216F30608F023C1E6012991B9
:1016700039916E011496ED91FC911597E60FF71FC5
:1016800040814C7150E056954795569547954115C8
:10169000510521F041305105B9F002C11296CD91AA
:1016A000DC911397C00FD11F4C814F709D8149175A
:1016B00010F4941B01C090E002C0369527959A95CE
:1016C000E2F721833283EDC012964D915C9113971E
:1016D000400F511FEA010D8002C0369527950A94EC
:1016E000E2F721833283A380B4802115D2E03D0745
:1016F00020F02F5F314091E005C0A401421B530B45
:101700009A0190E0E3015A80D0E45D1205C036955D
:101710002795992319F009C0992339F04FEFA416A2
:10172000B40631F440828EE007C07724739401C080
:10173000712C2A30310590F41496ED91FC91159797
:10174000E60FF71F908197FF30821496ED91FC9180
:101750001597E60FF71FA382B482A3C0E501CD2F32
:10176000DD27C295CF709C2FA50144275F70652EA1
:10177000A501407F5527529542954F7045275F70D0
:1017800045275A2D5F70A52EC43030F09370D69542
:10179000C795D695C7959C0F71103CC050E8550D64
:1017A000523010F456E007C053E005C0951768F4B6
:1017B0009F5F2F5C3109203D3105C0F706C0CFE0A7
:1017C0006C1649F063942551310926313105B8F77B
:1017D000DFE06D120EC0951720F49F5FD5E06D2EEF
:1017E00008C0CFE06C2E05C04F3049F04F5F22504B
:1017F000310923303105C0F74F3009F065C04FE0A3
:10180000641681F1639445E05FC0992361F09150C3
:101810002F5C3109203D3105C0F705C0662041F03D
:101820006A942551310926313105C0F761100DC088
:10183000992321F091505AE0652E07C0612C05C014
:10184000442341F041502250310923303105C0F783
:10185000411110C06620E9F16A944AE02330310555
:10186000C8F608C059132FC02330310540F14FE0AE
:10187000A42E4FE0943018F0990F990F9950C0E1C1
:101880004C9FA001112456294A29C92FD0E0DC2FF2
:10189000CC27D295D07F4C2B5D2B4383548301C042
:1018A000FFCFDFEFED1AFD0A6B5F7F4F0A5F1F4F1F
:1018B000D3CE92E090936F3E0EC083E00CC04FE019
:1018C0002FE0A22ED7CF4FE02330310508F073CFA1
:1018D000D1CF40E0CFCFDF91CF911F910F91FF90FB
:1018E000EF90DF90CF90BF90AF909F908F907F90C0
:1018F0006F905F904F903F900895CF93DC01892BBC
:1019000079F1ED91FC9111976081718140E050E097
:1019100020E030E090E02617370779F01296ED913D
:10192000FC911397E40FF51FC08181818C2B982BBC
:101930002F5F3F4F4A5F5F4FEECF992399F0809121
:101940006F3E811106C09093220681E080936F3E26
:1019500005C080912206982B9093220680E003C058
:101960008BE001C082E0CF910895009731F0809321
:10197000B03E9093B13E80E008958BE008956115EC
:10198000710591F1009781F120916F3E222371F151
:10199000243071F18093AE3E9093AF3E60936D3EE4
:1019A00070936E3E20EC20931806DC01ED91FC91C3
:1019B0002281203421F420911806206205C02038AD
:1019C00041F42091180628622093180610921E06F2
:1019D00013C0213879F42091180628622093180644
:1019E00026E820931E0608C08BE0089583E0089542
:1019F00081E0089582E00895DC01ED91FC918481FD
:101A0000803108F080E18093030681E080930B062B
:101A100080930A061092703E1092713E39DD81115A
:101A20000AC084E080936F3E8091703E9091713E39
:101A300062DD80E0089582E080936F3E0895009714
:101A4000C9F0DC01ED91FC911197208131812617BD
:101A5000370790F045E0469F9001479F300D1124D5
:101A60001496ED91FC911597E20FF31F81E08083AE
:101A700080E008958BE0089582E00895FC01892BB1
:101A8000D1F1A081B1818D919C9111978617970713
:101A9000A0F112969C910480F581E02D903459F4C8
:101AA00085E0869FD001879FB00D1124AE0FBF1F28
:101AB00084E392E00DC09058923080F485E0869FD8
:101AC000D001879FB00D1124AE0FBF1F87E695E0B0
:101AD00013968D939C93149780E001C082E095E06B
:101AE000969F9001979F300D1124E20FF31F908174
:101AF0009260908308958BE0089582E0089510929B
:101B0000000640911006509111068091703E909110
:101B1000713E9C01220F331FE091B03EF091B13E27
:101B2000E20FF31F4083518301968093703E9093A0
:101B3000713EAEDC811108C084E080936F3E8091DD
:101B4000703E9091713ED7CCE0916D3EF0916E3E2B
:101B5000099497FB072E16F4009406D077FD08D061
:101B60000BD007FC05D03EF4909581959F4F0895CA
:101B7000709561957F4F0895AA1BBB1B51E107C06B
:101B8000AA1FBB1FA617B70710F0A61BB70B881F0D
:101B9000991F5A95A9F780959095BC01CD0108959C
:041BA000F894FFCFE7
:061BA4003F1C0B050301CC
:101BAA00205FB400864A03EB00000000000000AA90
:101BBA0055016EA02C3E0000413E0000BF0C000003
:101BCA00413E0000430500007D0C00007D3E373E8B
:101BDA00A63E343E6401000100040F05000504140A
:101BEA00004D3E473E843E00010100100401008082
:021BFA003310A6
:00000001FF
