:1000000019C033C032C031C030C02FC02EC030C084
:100010002CC02BC02AC029C028C027C026C025C09C
:100020004EC0E2C222C021C020C01FC01EC01DC0E1
:100030001CC01BC011241FBECFEFCDBFDFE3DEBF4E
:100040001EE3A0E0BEE3E2EAF9E102C005900D92F2
:10005000A034B107D9F72EE3A0E4BEE301C01D929E
:10006000AB39B207E1F7EAD097CCCACF1FD326C28B
:100070001F920F920FB60F9211242F933F934F931D
:100080005F936F937F938F939F93AF93BF93EF9300
:10009000FF9386D285D081E080935301FF91EF9149
:1000A000BF91AF919F918F917F916F915F914F9190
:1000B0003F912F910F900FBE0F901F9018951F9298
:1000C0000F920FB60F9211242F933F934F935F938C
:1000D0006F937F938F939F93AF93BF93EF93FF9310
:1000E00081E0809377064ED0FF91EF91BF91AF9161
:1000F0009F918F917F916F915F914F913F912F9140
:100100000F900FBE0F901F90189581E08093413E95
:1001100008958091633E813071F41092633E289A75
:100120002FE53AEE90E0215030409040E1F700C0DA
:10013000000028980EC081E08093633E299AFFE575
:100140002AEE30E0F15020403040E1F700C00000DE
:100150002998E7EAF1E63197F1F700C000008093B3
:10016000003E8093483E0895E0E5F0E09081997F5D
:10017000892B8083808181608083889580818E7FB8
:1001800080830895289A2FE58AEE90E021508040E0
:100190009040E1F700C00000289884E090E0E4CFB0
:1001A0008091643E813049F480914D3E90914E3E65
:1001B000019680934D3E90934E3E8091483E813013
:1001C00049F48091463E9091473E01968093463E89
:1001D0009093473E8091463E9091473E419730F044
:1001E0001092463E1092473E1092483E8091633EE8
:1001F000811123C08091493E90914A3EA0914B3E8F
:10020000B0914C3E0196A11DB11D8A3F25E1920798
:10021000A105B10548F48093493E90934A3EA093CE
:100220004B3EB0934C3E08951092493E10924A3E88
:1002300010924B3E10924C3E6CCF089517DF1092F7
:10024000643E299A2FE58AEE90E02150804090404C
:10025000E1F700C00000299881E08093633E19E037
:10026000CAE0D0E06BD18091503E882309F4DAC017
:1002700080E090E09FD17C0180E090E0A8D1A701D0
:10028000481B590B2091423E3091433EBA01621BFC
:10029000730BCB0177FF04C088279927861B970B28
:1002A000863491058CF01616170614F092E001C002
:1002B00091E04093443E5093453E1092403E109250
:1002C0005B3E10925C3E69C0E091403E44970CF466
:1002D00045C0CA01820F931F97FD0196959587959A
:1002E0008093443E9093453E81E08E0F8093403E44
:1002F000F0E0EE0FFF1FE55AF14C6083718384300C
:1003000010F01092403E20915B3E30915C3E809117
:100310005D3E90915E3E820F931F20915F3E309133
:10032000603E820F931F2091613E3091623E820FAA
:10033000931F9C0197FF04C022273327281B390BEA
:10034000263431053CF11092403E10925B3E1092F3
:100350005C3E1816190604F192E01FC0129FC001FE
:10036000139F900D1124840F951FBE01EEDA609348
:10037000443E7093453E81E08E0F8093403EF0E016
:10038000EE0FFF1FE55AF14C10821182843010F0FD
:100390001092403E90E001C091E02091443E3091A7
:1003A000453E2093423E3093433E8091483E81300B
:1003B000C9F18091643E882319F0813031F02AC060
:1003C000913041F59093643E25C0923081F42091A4
:1003D0004D3E30914E3E81E02330310508F480E0FF
:1003E00010924D3E10924E3E1092643E14C09130D9
:1003F00029F410924D3E10924E3E0CC080914D3E1D
:1004000090914E3E809730F010924D3E10924E3EAD
:100410001092643E80E01092503E1092413E813036
:1004200009F477DE8091413E81111CCF84E090E099
:100430009BDE18CFE6E7FEE380818260808308952B
:1004400087FF02C081E007C086FD03C010924F3EC7
:1004500008958F708E5F80934F3E089582E79EE3EC
:1004600080D960E070E08EE29EE3E5D960E070E064
:100470008EE29EE3FFD94DE65EE360E089E19EE314
:10048000DFC1E091193EF0911A3E808187FF08C0DC
:10049000E091743EF091753E808184608083089580
:1004A00081E08093503E08959091410192FDFCCFF0
:1004B00090E080934A0190934B01089580E2F4DF2D
:1004C000E4E1F4E08081877F8083E6E7FEE3108249
:1004D00085E19EE38183928381E19EE3838394831C
:1004E00089E09EE3858396838DE09EE387839087F2
:1004F00081E09EE38187928785E09EE383879487EE
:100500008BEF99E0858796878EE292E08787908BC4
:1005100080E292E0818B928B8AE192E0838B948BD4
:10052000158A168A81E492E0878B908FCF016AD575
:1005300064D58093743E9093753E0895E091743E27
:10054000F091753E808180FF0BC080E0B9D58111AC
:1005500007C0E091743EF091753E80818E7F80836C
:10056000E091743EF091753E808181FF0EC0F7D519
:10057000811102C0FCD502C080E862DFE091743EC8
:10058000F091753E80818D7F8083E091743EF09183
:10059000753E808182FF03C08B7F816080830895D8
:1005A000B4DDE6E7FEE38081816080838091003ED8
:1005B00090E03BC125E0AC01249FC001259F900D38
:1005C0001124FC01E359F14C81819281089526E0C8
:1005D000AC01249FC001259F900D1124FC01E1571F
:1005E000F14C8481958108951F920F920FB60F925E
:1005F00011242F933F934F935F936F937F938F9328
:100600009F93AF93BF93EF93FF9375D9FF91EF91B2
:10061000BF91AF919F918F917F916F915F914F911A
:100620003F912F910F900FBE0F901F90189580E073
:10063000089542E068ED88E790E063D041E068ED1E
:1006400081E690E05ED040E068ED80E690E059D031
:100650008091630080FDFCCF80E00895789480E075
:100660000895E0E1F4E0808188608193E83184E0DE
:10067000F807C9F7E0E3F4E0808188608193E8330C
:1006800084E0F807C9F7E0E5F4E0808188608193B1
:10069000E83584E0F807C9F708952398E3E3F4E028
:1006A0008081877F8083229A2A9844C0DADF00986D
:1006B000E0E1F4E08081886080830298E2E1F4E088
:1006C0008081886080830398E3E1F4E08081886022
:1006D00080830598E5E1F4E0808188608083069856
:1006E000E6E1F4E0808188608083209A2898219A4E
:1006F00029989FDF81E009D027D0CFDFAFDF15D069
:1007000096CFFC0164BF408308958091510181110F
:10071000FCCF1092470189E480935001109255015B
:1007200081E08093520180E0089583E0809350003F
:1007300080E00895E0E0F8E08BE591E08087918724
:1007400080E4868380E0089584E08093A00081E0C7
:100750008093A10080E00895CF92DF92FF920F93E3
:100760001F93CF93DF93EC01AE81BF81EB01CC0FE0
:10077000DD1FC60FD71FCA0FDB1FFA80FC014481A3
:100780005581E6E0E69F9001E79F300D11248A0134
:10079000020F131FF80122813381F9012181328177
:1007A000F80104811581201B310BE8812E1B3109D2
:1007B000EC01EA81FB8100811181FA0140E050E007
:1007C0004017510739F146175707F9F012968C91E7
:1007D0001297F8121AC0808185588230E8F0C480E0
:1007E000D58082819381EC0189819A81C816D906CE
:1007F00060F48C199D09CC91D0E0C817D90728F472
:100800008C1B9D0B2817390738F04F5F5F4F1396ED
:100810003696D6CF80E001C081E0DF91CF911F9165
:100820000F91FF90DF90CF9008952091513E30912D
:10083000523E820F931F8093513E9093523E0895F3
:100840000097D9F041155105C1F026E0629FB00133
:100850001124DC011496ED91FC911597E60FF71F1A
:1008600021E0208314968D919C911597FC01E60F51
:10087000F71F4283538380E008958BE008952F9201
:100880003F924F925F926F927F928F929F92AF9220
:10089000BF92CF92DF92EF92FF920F931F93CF936D
:1008A000DF93009709F47BC3EC01A12CB12C812CC0
:1008B000912C212CD12C33E0C32E45E8642E56E830
:1008C000752E67E0362E72E0472EE8E05E2EEA8154
:1008D000FB81808191818816990608F0A3C175017A
:1008E000EE0CFF1C0C811D810E0D1F1DD8018C917B
:1008F000843009F4A1C038F4823001F108F049C015
:10090000813059F088C1853809F4C0C0863809F4AF
:10091000F4C0873009F07FC135C1D8011296ED913E
:10092000FC91139780818E7109F067C14C928C8184
:100930009D81FC01EE0DFF1D51825FC1F8012181F7
:10094000222329F10280F381E02D253020F08181DE
:100950009281D8010EC0D80114968D919C91159763
:10096000418152818417950769F04817590730F47F
:10097000019714968D939C93159704C00196F801E6
:10098000848395832150D80111962C9336C1F801A8
:100990002FC1D80114962D913C91159712968D91E7
:1009A0009C911397DC0111964D915C91129724173D
:1009B000350709F430C18E819F8142175307E0F457
:1009C000241B350BDC01AA0DBB1D8C9190E005802A
:1009D00002C0959587950A94E2F799272817390759
:1009E00008F419C18481882309F415C1F801308203
:1009F000EA81FB81248119C0FC01EA0DFB1D421B29
:100A0000530B808190E04817590708F404C1828194
:100A1000882329F0B401CE019FDE8111FCC0E4E0FF
:100A2000D801EC93EA81FB8122818C819D81FC01BC
:100A3000EE0DFF1D2183E1C0D80114962D913C914C
:100A400015971296ED91FC911397818192818217EF
:100A5000930708F4D6C0EE81FF81EA0DFB1D821BCF
:100A6000930B208130E02817390708F0AEC082814F
:100A7000882329F0B401CE016FDE8111CCC0F801CA
:100A80008181882309F467C08150B6C0A881B981EB
:100A9000808513968C93EC81FD81EE0DFF1D4481C2
:100AA0005581A281B38111968D919C9112978417E3
:100AB0009507C0F0AE81BF81AA0DBB1D6C91262F9A
:100AC00030E011967C917F5F02C0359527957A952D
:100AD000E2F7841B950B621B262F30E0281739079D
:100AE00008F497C07082EA81FB8122818C819D810C
:100AF000FC01EE0DFF1D218342C0D80114966D91BB
:100B00007C9115971296ED91FC911397218132817A
:100B10002617370758F411968C911197811102C04E
:100B2000CC9277C08150F801818373C0EE81FF8140
:100B3000EA0DFB1D8081482F50E091819F5F02C02C
:100B4000559547959A95E2F7261B370B841B90E045
:100B50008217930760F4D8016C92EA81FB812381AC
:100B60008C819D81FC01EE0DFF1D218352C0F80197
:100B70008181811102C0C0824CC0815081832224B6
:100B800023943BC0D80114962D913C911597129651
:100B90008D919C911397DC0111968D919C911297E8
:100BA0008217930768F5281B390BAE81BF81AA0D08
:100BB000BB1D8C9190E0058002C0959587950A94A5
:100BC000E2F799272817390718F4F801C0821AC0EC
:100BD000D80111968C91119781110CC081E08C93F2
:100BE0008C819D81FC01EE0DFF1D0280F381E02DC3
:100BF000C08211C08150F8018183DD24D3940BC0E1
:100C0000D801CC928C819D81FC01EE0DFF1D1182DB
:100C100002C022242394BFEF8B1A9B0AE3E0AE0E9E
:100C2000B11C55CEE881F981808187FF23C040E067
:100C300050E020E030E0EA81FB818081918128173B
:100C4000390798F4EC81FD81E40FF51FA281B3818F
:100C50008C9180FD05C09081977F11F081608C930D
:100C60002F5F3F4F4A5F5F4FE6CFE881F981808178
:100C70008F778083D11007C0E881F98121106FC080
:100C800080818E7F6EC0EA81FB8181858823A1F3FC
:100C9000E881F981808180688083EA81FB81818598
:100CA000813051F740E050E020E030E096E0D92E6E
:100CB000EA81FB816081718126173707E8F60C8194
:100CC0001D81FA01EE0FFF1FE00FF11F8081982FA9
:100CD000977FA1F1853811F08330B1F5EE80FF8068
:100CE000D701A40FB51F1296BC90BB2039F180E04C
:100CF00090E0C12C86179707F8F428173907D1F030
:100D0000D89ED001D99EB00D1124A00FB11FAC9177
:100D1000A43011F0A63871F4DC01AA0FBB1FA80F94
:100D2000B91FAE0DBF1D1296AC91BA1203C0CB0114
:100D3000CC24C3940196DECFC11006C00280F3819B
:100D4000E02D80818E7F05C00280F381E02D8081BF
:100D5000816080832F5F3F4F4D5F5F4FA9CF8081C0
:100D6000816080838091513E9091523EE881F9816B
:100D700021813281A90148535F4F4817590738F440
:100D8000821B930BAA24A394A3E0BA2E44C082171B
:100D9000930710F080E004C1821B930B0197893CFC
:100DA0009105C0F3EFCF885C9109E881F981218139
:100DB000328128533F4F218332832381211196C0F2
:100DC0002481222311F021502483E881F981258197
:100DD000222311F0215025838A809B80D40116960E
:100DE0002C91169721111BC08A809B80F4012781CA
:100DF000211148C0EA81FB812381222361F020E098
:100E000030E0A0E0B0E0EA81FB8140815181A4178D
:100E1000B50708F46EC0893C910528F6BBCF088160
:100E20001981F80124812111DFCFED90FC9060E061
:100E300070E040E050E04E155F05F1F0EC81FD817F
:100E4000E60FF71F2081233011F0283081F4248130
:100E50003581C280D380D6011196CD90DC90129757
:100E60002C153D0520F42F5F3F4F248335834F5FC2
:100E70005F4F6A5F7F4FDFCFF4012681D801149660
:100E80002C93B2CF08811981D80115962C9121118C
:100E9000B1CFE080F18060E070E040E050E04E15BE
:100EA0005F05F1F0EC81FD81E60FF71F2081233013
:100EB00011F0283081F424813581C280D380D6019D
:100EC0001196CD90DC901297C216D30620F42150D3
:100ED0003109248335834F5F5F4F6A5F7F4FDFCFD8
:100EE000F4012781D80115962C9384CF21502383B8
:100EF00081CFA901440F551FEC81FD81E40FF51F3F
:100F00006081653809F047C06181662319F061503E
:100F1000618341C0A0826C817D81FB01E40FF51FDC
:100F20000280F381E02DB082EE81FF81E20FF31F9A
:100F3000D280DD2081F140E050E000E010E0EA8165
:100F4000FB81608171810617170728F5EE81FF810B
:100F5000E40FF51F6281D61219C0BA01660F771F20
:100F6000EC81FD814F01860E971EF401E280F38033
:100F7000F701F080F0FE0AC0F401A082EC81FD814F
:100F8000E60FF71F0280F381E02DB0820F5F1F4F45
:100F90004D5F5F4FD4CF11962D5F3F4F34CF8BE025
:100FA000DF91CF911F910F91FF90EF90DF90CF9045
:100FB000BF90AF909F908F907F906F905F904F9079
:100FC0003F902F90089595E09093553EE091953E87
:100FD000F091963E0188F289E02D309709F009944E
:100FE000FFCFE091953EF091963E0388F489E02D85
:100FF000309709F0099480E4E6CF8091953E909176
:10100000963E0895CF938093953E9093963E80911F
:10101000553E853039F0823028F08091533E882348
:1010200071F140C01092533EC0E0A091953EB09146
:10103000963E8C2F90E0880F991F1196ED91FC91B0
:101040001297E80FF91F0190F081E02D309729F3F6
:1010500017962D913C911897D901A80FB91F8D9122
:101060009C910995882329F08091533E8F5F80934E
:10107000533ECF5F8091533E8823B9F2CECF82E0BA
:101080008093553EE091953EF091963E0784F0891D
:10109000E02D309711F0099508C085E08093553E0A
:1010A00081E001C08F5F8093533E8091533E88233F
:1010B00029F01092533E80E8CF9185CFCF910895CB
:1010C0001F93CF93DF93182FA091953EB091963E3A
:1010D00015962D913C911697D0E0F901ED0FF11D79
:1010E000ED0FF11D80819181892B11F0DF5FF5CF2C
:1010F00053968D919C915497892B49F1812F90E0C3
:10110000880F991FF901E80FF91F0190F081E02D78
:101110003097E9F01B962D913C911C97D901A80FAF
:10112000B91F8D919C91009791F061EF77E009953F
:10113000C82F811106C083E08093553E1092543E23
:1011400003C082E08093553E1D1720F001C0C2E02D
:1011500082E839DF8C2FDF91CF911F910895E091C4
:10116000953EF091963E0584F685E02D09941F93F7
:10117000CF93DF931F92CDB7DEB71982E091953EF2
:10118000F091963E0588F689E02D309749F082E08F
:101190008093553ECE010196099583E08093553E9C
:1011A0008091533E81112CC01981111129C084E016
:1011B0008093553EA091953EB091963E8091543ECD
:1011C00090E0880F991F1396ED91FC911497E80F0A
:1011D000F91F0190F081E02D19962D913C911A97FD
:1011E000309781F0D901A80FB91F8D919C91099575
:1011F00081113DC08091543E8F5F8093543EDACF81
:1012000010E03CC01092543EF901E10FF11DE10FD6
:10121000F11D0190F081E02D309759F00190F0819F
:10122000E02D808187FF03C09C9194609C931F5F99
:10123000EBCF1093543E82E08093553E5796ED914C
:10124000FC915897309711F0099505C08091533E55
:101250008F5F8093533E10E08091533E882371F05E
:101260001092533E8091543E8064ADDE07C0809161
:10127000533E8F5F8093533E13E0EECF812F0F904C
:10128000DF91CF911F9108958091593E90915A3EE0
:10129000A091973EB091983EED91FC9111974081BD
:1012A000518125E0289FB001299F700D112420E075
:1012B00030E084179507A8F41496ED91FC911597EA
:1012C000E20FF31FE60FF71FE0812B5F3F4FE0FDBA
:1012D00002C00196EECF8093593E90935A3E80E033
:1012E00008951092593E10925A3E81E00895BC0133
:1012F000E091973EF091983E86E0869F9001879F0F
:10130000300D1124A281B381A20FB31F11968C91CD
:1013100080932A06A281B381A20FB31F8C91809380
:10132000260695E0969FA001979F500D1124A48159
:10133000B581A40FB51F13968C9180931A06A481D2
:10134000B581A40FB51F14968C9180931B06A481C0
:10135000B581A40FB51F8C9181FD9C9384819581EB
:10136000DC01A40FB51F8C918C7169F4A281B3814B
:10137000A20FB31F1496AC91A295AF70B0E0A45623
:10138000B6468C9101C08FE380931C06A281B38185
:10139000A20FB31F12968C918B3110F48C5F01C099
:1013A0008FE180930506A281B381A20FB31F15962A
:1013B0008C9180930106A281B381A20FB31F139673
:1013C0008C9182958F708093190682819381FC01A4
:1013D000E20FF31F83818F708061809302068091FA
:1013E000180683608093180681E88093000681E0E8
:1013F0008093080608953F924F925F926F927F927A
:101400008F929F92AF92BF92CF92DF92EF92FF9214
:101410000F931F93CF93DF938091583E882309F455
:1014200048C1A091973EB091983EC090993ED0900F
:101430009A3E00E010E060E070E0E12CF12C80E0EA
:1014400033243394D1E84D2E88248A94992493949C
:101450006D907C901197F30120813181E216F306A3
:1014600008F023C1E601299139916E011496ED919E
:10147000FC911597E60FF71F40814C7150E056958F
:101480004795569547954115510521F04130510535
:10149000B9F002C11296CD91DC911397C00FD11F04
:1014A0004C814F709D81491710F4941B01C090E04E
:1014B00002C0369527959A95E2F721833283EDC0D5
:1014C00012964D915C911397400F511FEA010D80C8
:1014D00002C0369527950A94E2F721833283A380D0
:1014E000B4802115D2E03D0720F02F5F314091E01C
:1014F00005C0A401421B530B9A0190E0E3015A80FE
:10150000D0E45D1205C036952795992319F009C0DE
:10151000992339F04FEFA416B40631F440828EE0DF
:1015200007C07724739401C0712C2A30310590F4E0
:101530001496ED91FC911597E60FF71F908197FF98
:1015400030821496ED91FC911597E60FF71FA38258
:10155000B482A3C0E501CD2FDD27C295CF709C2FAB
:10156000A50144275F70652EA501407F5527529540
:1015700042954F7045275F7045275A2D5F70A52E05
:10158000C43030F09370D695C795D695C7959C0F0B
:1015900071103CC050E8550D523010F456E007C0B1
:1015A00053E005C0951768F49F5F2F5C3109203D1B
:1015B0003105C0F706C0CFE06C1649F063942551A1
:1015C000310926313105B8F7DFE06D120EC09517ED
:1015D00020F49F5FD5E06D2E08C0CFE06C2E05C0D3
:1015E0004F3049F04F5F2250310923303105C0F7A9
:1015F0004F3009F065C04FE0641681F1639445E017
:101600005FC0992361F091502F5C3109203D310575
:10161000C0F705C0662041F06A9425513109263192
:101620003105C0F761100DC0992321F091505AE0A7
:10163000652E07C0612C05C0442341F04150225063
:10164000310923303105C0F7411110C06620E9F19E
:101650006A944AE023303105C8F608C059132FC0F8
:101660002330310540F14FE0A42E4FE0943018F0C4
:10167000990F990F9950C0E14C9FA0011124562950
:101680004A29C92FD0E0DC2FCC27D295D07F4C2B14
:101690005D2B4383548301C0FFCFDFEFED1AFD0ABA
:1016A0006B5F7F4F0A5F1F4FD3CE92E09093583EFF
:1016B0000EC083E00CC04FE02FE0A22ED7CF4FE04A
:1016C0002330310508F073CFD1CF40E0CFCFDF9189
:1016D000CF911F910F91FF90EF90DF90CF90BF902F
:1016E000AF909F908F907F906F905F904F903F90C2
:1016F0000895CF93DC01892B79F1ED91FC9111973D
:101700006081718140E050E020E030E090E02617F9
:10171000370779F01296ED91FC911397E40FF51FBE
:10172000C08181818C2B982B2F5F3F4F4A5F5F4F89
:10173000EECF992399F08091583E811106C0909385
:10174000220681E08093583E05C080912206982BA6
:101750009093220680E003C08BE001C082E0CF912D
:101760000895009731F08093993E90939A3E80E0DF
:1017700008958BE008956115710591F1009781F14D
:101780002091583E222371F1243071F18093973ECD
:101790009093983E6093563E7093573E20EC209372
:1017A0001806DC01ED91FC912281203421F4209176
:1017B0001806206205C0203841F4209118062862DE
:1017C0002093180610921E0613C0213879F4209138
:1017D000180628622093180626E820931E0608C0E3
:1017E0008BE0089583E0089581E0089582E00895F4
:1017F000DC01ED91FC918481803108F080E18093DF
:10180000030681E080930B0680930A061092593EEE
:1018100010925A3E39DD81110AC084E08093583E0F
:101820008091593E90915A3E62DD80E0089582E0B9
:101830008093583E08950097C9F0DC01ED91FC912A
:101840001197208131812617370790F045E0469F98
:101850009001479F300D11241496ED91FC9115973E
:10186000E20FF31F81E0808380E008958BE008950C
:1018700082E00895FC01892BD1F1A081B1818D9185
:101880009C91119786179707A0F112969C9104805E
:10189000F581E02D903459F485E0869FD001879F33
:1018A000B00D1124AE0FBF1F84E392E00DC090581D
:1018B000923080F485E0869FD001879FB00D11247F
:1018C000AE0FBF1F87E695E013968D939C931497F8
:1018D00080E001C082E095E0969F9001979F300DD7
:1018E0001124E20FF31F90819260908308958BE0A2
:1018F000089582E0089510920006409110065091DC
:1019000011068091593E90915A3E9C01220F331F3F
:10191000E091993EF0919A3EE20FF31F408351838C
:1019200001968093593E90935A3EAEDC811108C0D7
:1019300084E08093583E8091593E90915A3ED7CC96
:10194000E091563EF091573E099497FB072E16F40E
:10195000009406D077FD08D00BD007FC05D03EF4EC
:10196000909581959F4F0895709561957F4F08954B
:10197000AA1BBB1B51E107C0AA1FBB1FA617B707B5
:1019800010F0A61BB70B881F991F5A95A9F78095D1
:0C1990009095BC01CD010895F894FFCFA4
:06199C003F1C0B050301D6
:1019A20001193E00002E3E0000BB0B00002E3E003F
:1019B200003F040000790B0000663E243E8F3E216A
:1019C2003E6401000100040F0500050414003A3EC4
:1019D200343E6D3E0001010010040100803310000E
:00000001FF
