:1000000019C033C032C031C030C02FC02EC030C084
:100010002CC02BC02AC029C028C027C026C025C09C
:100020004EC05FC322C021C020C01FC01EC01DC063
:100030001CC01BC011241FBECFEFCDBFDFE3DEBF4E
:100040001EE3A0E0BEE3E8ECFAE102C005900D92E9
:10005000A634B107D9F72EE3A6E4BEE301C01D9292
:10006000A83AB207E1F708D12ACDCACFACD3A3C2D0
:100070001F920F920FB60F9211242F933F934F931D
:100080005F936F937F938F939F93AF93BF93EF9300
:10009000FF9303D37ED081E080935301FF91EF91D2
:1000A000BF91AF919F918F917F916F915F914F9190
:1000B0003F912F910F900FBE0F901F9018951F9298
:1000C0000F920FB60F9211242F933F934F935F938C
:1000D0006F937F938F939F93AF93BF93EF93FF9310
:1000E000E0E7F6E0878181E0878346D0FF91EF91DA
:1000F000BF91AF919F918F917F916F915F914F9140
:100100003F912F910F900FBE0F901F90189581E097
:1001100080934F3E08958091033E813071F4109298
:10012000033E289A2FE53AEE90E02150304090406F
:10013000E1F700C0000028980EC081E08093033EE4
:10014000299A2FE53AEE90E0215030409040E1F7B7
:1001500000C0000029988093563E0895E0E5F0E045
:100160009081997F892B80838081816080838895AD
:1001700080818E7F80830895289A2FE58AEE90E013
:10018000215080409040E1F700C000002898A895D9
:10019000FECF8091483E9091493E01968F31910566
:1001A00028F48093483E9093493E18C01092483EF0
:1001B0001092493E0E9A87E893E10197F1F700C04B
:1001C0000000B2D287E893E10197F1F700C0000088
:1001D0008091770684FFD0DFB1D20E9880915D3E8A
:1001E000813049F480915B3E90915C3E0196809312
:1001F0005B3E90935C3E8091563E813049F4809105
:10020000543E9091553E01968093543E9093553EB6
:100210008091543E9091553E409730F01092543E5C
:100220001092553E1092563E8091033E811123C09C
:100230008091573E9091583EA091593EB0915A3EC0
:100240000196A11DB11D8A3F25E19207A105B105C7
:1002500048F48093573E9093583EA093593EB093F4
:100260005A3E08951092573E1092583E1092593EB1
:1002700010925A3E50CF0895F9DE19E0CAE0D0E05E
:1002800007E0A895D8D180915F3E882309F447C143
:1002900080E090E00CD27C0180E090E015D2A701D4
:1002A000481B590B2091503E3091513E7A01E21A81
:1002B000F30AB701F7FE04C0662777276E197F0996
:1002C000A091063EB091073E6A177B0718F11E14F5
:1002D0001F0414F092E001C091E04093523E50930D
:1002E000533E1092463E10926A3E10926B3EE09151
:1002F0004A3E81E08E0F80934A3EF0E0EE0FFF1FF2
:10030000E55BF14C60837183823008F482C0109207
:100310004A3E7FC08091043E9091053EE091463E6A
:100320006817790708F456C0CA01820F931F97FD1A
:100330000196959587958093523E9093533E81E028
:100340008E0F8093463EF0E0EE0FFF1FE659F14C12
:10035000E082F182843010F01092463E20916A3E95
:1003600030916B3E80916C3E90916D3E820F931F59
:1003700020916E3E30916F3E820F931F2091703E10
:100380003091713E820F931F9C0197FF04C022277A
:100390003327281B390B2A173B07C0F11092463E22
:1003A00010926A3E10926B3EE0914A3E41E04E0F41
:1003B00040934A3EF0E0EE0FFF1FE55BF14C2083D7
:1003C0003183423010F010924A3E1816190604F19B
:1003D00092E01FC0129FC001139F900D1124840F43
:1003E000951FBE0159DB6093523E7093533E81E0EE
:1003F0008E0F8093463EF0E0EE0FFF1FE659F14C62
:1004000010821182843010F01092463E90E001C0BC
:1004100091E02091523E3091533E2093503E3093D4
:10042000513E8091563E813009F479C080915D3E05
:10043000882319F0813039F06AC0913009F067C023
:1004400090935D3E64C0913029F410925B3E10920F
:100450005C3E5DC020915B3E30915C3E2F313105AA
:1004600038F010925B3E10925C3E10925D3E4FC0A1
:10047000923009F04CC080915B3E90915C3E0297B7
:10048000F0F18091473E8A3020F48F5F8093473EA1
:1004900034C020914B3E30914C3E80914D3E909126
:1004A0004E3E820F931F969587954091003E509146
:1004B000013E149F9001159F300D1124820F931F50
:1004C000BE01D6DA9B016093003E7093013E069F09
:1004D000C001079F900D1124BE01CADA6093063E49
:1004E0007093073EC901880F991F880F991FBE019D
:1004F000BFDA6093043E7093053E81E001C080E066
:1005000010925B3E10925C3E10925D3E01C080E016
:1005100010925F3E10924F3E813009F4FCDD8091D5
:100520004F3E8111AECE84E090E018DEAACEE3E823
:10053000FEE3808182608083089587FF02C081E0AE
:1005400007C086FD03C010925E3E08958F708E5FD7
:1005500080935E3E08958FE79EE396D960E070E059
:1005600085E39EE3FBD960E070E085E39EE315DA66
:100570004AE75EE360E080E29EE3F5C1E091203E61
:10058000F091213E808187FF08C0E091813EF0918B
:10059000823E808184608083089581E080935F3E05
:1005A00008959091410192FDFCCF90E080934A0123
:1005B00090934B01089580E2F4DFE4E1F4E0808160
:1005C000877F8083E3E8FEE310828CE19EE38183F2
:1005D000928388E19EE38383948380E19EE3858315
:1005E000968384E19EE38783908788E09EE38187FA
:1005F00092878CE09EE3838794878EE89AE08587D4
:1006000096878BEA92E08787908B8DE992E0818BC9
:10061000928B87E992E0838B948B158A168A8EEBF6
:1006200092E0878B908FCF0180D57AD58093813EE1
:100630009093823E0895E091813EF091823E8081C8
:1006400080FF0BC080E0CFD5811107C0E091813ED3
:10065000F091823E80818E7F8083E091813EF09197
:10066000823E808181FF0EC00DD6811102C012D65C
:1006700002C080E862DFE091813EF091823E80819D
:100680008D7F8083E091813EF091823E808182FF68
:1006900003C08B7F81608083089539DDE3E8FEE34A
:1006A0008081816080838091023E90E051C125E08D
:1006B000AC01249FC001259F900D1124FC01E65838
:1006C000F14C81819281089526E0AC01249FC00104
:1006D000259F900D1124FC01E456F14C84819581F5
:1006E00008951F920F920FB60F9211242F933F93EC
:1006F0004F935F936F937F938F939F93AF93BF932A
:10070000EF93FF938BD9FF91EF91BF91AF919F91A1
:100710008F917F916F915F914F913F912F910F90AA
:100720000FBE0F901F901895E0E7F6E081E08683FA
:1007300082E0828381E2808380E00895E0E7F6E052
:1007400016821082089580E0089542E068ED88E7FF
:1007500090E06DD041E068ED81E690E068D040E047
:1007600068ED80E690E063D08091630080FDFCCF6F
:1007700080E00895789480E00895E0E1F4E08081DD
:1007800088608193E83184E0F807C9F7E0E3F4E09A
:10079000808188608193E83384E0F807C9F7E0E559
:1007A000F4E0808188608193E83584E0F807C9F738
:1007B0000895E7E1F4E08081887F84608083808110
:1007C000877F80830895D9DF0098E0E1F4E080819D
:1007D000886080830298E2E1F4E080818860808311
:1007E0000398E3E1F4E08081886080830598E5E187
:1007F000F4E0808188608083069A0E98209A289879
:10080000219A29982298E2E3F4E08081886080832D
:100810002398E3E3F4E080818860808396DF81E0C1
:100820000AD01ED0C6DF24D0A5DF15D08CCFFC01A6
:1008300064BF40830895809151018111FCCF1092D3
:10084000470189E4809350011092550181E0809323
:10085000520180E0089583E08093500080E0089585
:1008600084E08093A00081E08093A10080E008955F
:1008700048E068ED80E091E0DADF80E00895CF9213
:10088000DF92FF920F931F93CF93DF93EC01AE8122
:10089000BF81EB01CC0FDD1FC60FD71FCA0FDB1FB7
:1008A000FA80FC0144815581E6E0E69F9001E79FD4
:1008B000300D11248A01020F131FF80122813381A8
:1008C000F90121813281F80104811581201B310B4E
:1008D000E8812E1B3109EC01EA81FB810081118145
:1008E000FA0140E050E04017510739F14617570729
:1008F000F9F012968C911297F8121AC080818558DF
:100900008230E8F0C480D58082819381EC018981B6
:100910009A81C816D90660F48C199D09CC91D0E053
:10092000C817D90728F48C1B9D0B2817390738F0F6
:100930004F5F5F4F13963696D6CF80E001C081E0BF
:10094000DF91CF911F910F91FF90DF90CF9008958D
:100950002091603E3091613E820F931F8093603EF4
:100960009093613E08950097D9F041155105C1F06B
:1009700026E0629FB0011124DC011496ED91FC91F8
:100980001597E60FF71F21E0208314968D919C9117
:100990001597FC01E60FF71F4283538380E008950B
:1009A0008BE008952F923F924F925F926F927F92C9
:1009B0008F929F92AF92BF92CF92DF92EF92FF926F
:1009C0000F931F93CF93DF93009709F47BC3EC0140
:1009D000A12CB12C812C912C212CD12C33E0C32EB5
:1009E00045E8642E56E8752E67E0362E72E0472EF5
:1009F000E8E05E2EEA81FB8180819181881699066C
:100A000008F0A3C17501EE0CFF1C0C811D810E0DB9
:100A10001F1DD8018C91843009F4A1C038F48230B4
:100A200001F108F049C0813059F088C1853809F4D6
:100A3000C0C0863809F4F4C0873009F07FC135C1E1
:100A4000D8011296ED91FC91139780818E7109F077
:100A500067C14C928C819D81FC01EE0DFF1D51827E
:100A60005FC1F8012181222329F10280F381E02D69
:100A7000253020F081819281D8010EC0D8011496D2
:100A80008D919C911597418152818417950769F04A
:100A90004817590730F4019714968D939C93159736
:100AA00004C00196F801848395832150D8011196E2
:100AB0002C9336C1F8012FC1D80114962D913C9189
:100AC000159712968D919C911397DC0111964D917B
:100AD0005C9112972417350709F430C18E819F81EC
:100AE00042175307E0F4241B350BDC01AA0DBB1D94
:100AF0008C9190E0058002C0959587950A94E2F765
:100B000099272817390708F419C18481882309F423
:100B100015C1F8013082EA81FB81248119C0FC01F2
:100B2000EA0DFB1D421B530B808190E048175907CB
:100B300008F404C18281882329F0B401CE019FDE2C
:100B40008111FCC0E4E0D801EC93EA81FB812281B1
:100B50008C819D81FC01EE0DFF1D2183E1C0D80138
:100B600014962D913C9115971296ED91FC91139747
:100B7000818192818217930708F4D6C0EE81FF81AC
:100B8000EA0DFB1D821B930B208130E028173907EB
:100B900008F0AEC08281882329F0B401CE016FDE57
:100BA0008111CCC0F8018181882309F467C081508C
:100BB000B6C0A881B981808513968C93EC81FD81A4
:100BC000EE0DFF1D44815581A281B38111968D9157
:100BD0009C91129784179507C0F0AE81BF81AA0D32
:100BE000BB1D6C91262F30E011967C917F5F02C077
:100BF000359527957A95E2F7841B950B621B262F76
:100C000030E02817390708F497C07082EA81FB8129
:100C100022818C819D81FC01EE0DFF1D218342C04C
:100C2000D80114966D917C9115971296ED91FC91D7
:100C30001397218132812617370758F411968C912A
:100C40001197811102C0CC9277C08150F801818345
:100C500073C0EE81FF81EA0DFB1D8081482F50E0BB
:100C600091819F5F02C0559547959A95E2F7261BA3
:100C7000370B841B90E08217930760F4D8016C92C5
:100C8000EA81FB8123818C819D81FC01EE0DFF1D9A
:100C9000218352C0F8018181811102C0C0824CC001
:100CA00081508183222423943BC0D80114962D9136
:100CB0003C91159712968D919C911397DC0111969A
:100CC0008D919C9112978217930768F5281B390B19
:100CD000AE81BF81AA0DBB1D8C9190E0058002C042
:100CE000959587950A94E2F799272817390718F4FC
:100CF000F801C0821AC0D80111968C911197811108
:100D00000CC081E08C938C819D81FC01EE0DFF1D58
:100D10000280F381E02DC08211C08150F8018183EF
:100D2000DD24D3940BC0D801CC928C819D81FC0131
:100D3000EE0DFF1D118202C022242394BFEF8B1AF7
:100D40009B0AE3E0AE0EB11C55CEE881F9818081AB
:100D500087FF23C040E050E020E030E0EA81FB81E3
:100D6000808191812817390798F4EC81FD81E40F87
:100D7000F51FA281B3818C9180FD05C09081977F82
:100D800011F081608C932F5F3F4F4A5F5F4FE6CF3A
:100D9000E881F98180818F778083D11007C0E88155
:100DA000F98121106FC080818E7F6EC0EA81FB8146
:100DB00081858823A1F3E881F9818081806880831F
:100DC000EA81FB818185813051F740E050E020E0ED
:100DD00030E096E0D92EEA81FB816081718126178F
:100DE0003707E8F60C811D81FA01EE0FFF1FE00FB7
:100DF000F11F8081982F977FA1F1853811F0833002
:100E0000B1F5EE80FF80D701A40FB51F1296BC90FC
:100E1000BB2039F180E090E0C12C86179707F8F4E9
:100E200028173907D1F0D89ED001D99EB00D1124D2
:100E3000A00FB11FAC91A43011F0A63871F4DC0101
:100E4000AA0FBB1FA80FB91FAE0DBF1D1296AC9104
:100E5000BA1203C0CB01CC24C3940196DECFC110DB
:100E600006C00280F381E02D80818E7F05C0028064
:100E7000F381E02D8081816080832F5F3F4F4D5F44
:100E80005F4FA9CF8081816080838091603E909187
:100E9000613EE881F98121813281A90148535F4F88
:100EA0004817590738F4821B930BAA24A394A3E094
:100EB000BA2E44C08217930710F080E004C1821B51
:100EC000930B0197893C9105C0F3EFCF885C9109A2
:100ED000E881F9812181328128533F4F2183328378
:100EE0002381211196C02481222311F021502483D3
:100EF000E881F9812581222311F0215025838A8000
:100F00009B80D40116962C91169721111BC08A80C4
:100F10009B80F4012781211148C0EA81FB81238154
:100F2000222361F020E030E0A0E0B0E0EA81FB8124
:100F300040815181A417B50708F46EC0893C910522
:100F400028F6BBCF08811981F80124812111DFCF58
:100F5000ED90FC9060E070E040E050E04E155F05E1
:100F6000F1F0EC81FD81E60FF71F2081233011F0B5
:100F7000283081F424813581C280D380D601119636
:100F8000CD90DC9012972C153D0520F42F5F3F4F3C
:100F9000248335834F5F5F4F6A5F7F4FDFCFF4015C
:100FA0002681D80114962C93B2CF08811981D801DB
:100FB00015962C912111B1CFE080F18060E070E0B6
:100FC00040E050E04E155F05F1F0EC81FD81E60F49
:100FD000F71F2081233011F0283081F424813581DE
:100FE000C280D380D6011196CD90DC901297C216A4
:100FF000D30620F421503109248335834F5F5F4F9E
:101000006A5F7F4FDFCFF4012781D80115962C93BB
:1010100084CF2150238381CFA901440F551FEC8138
:10102000FD81E40FF51F6081653809F047C06181DB
:10103000662319F06150618341C0A0826C817D817B
:10104000FB01E40FF51F0280F381E02DB082EE81F9
:10105000FF81E20FF31FD280DD2081F140E050E0FC
:1010600000E010E0EA81FB816081718106171707BB
:1010700028F5EE81FF81E40FF51F6281D61219C0B9
:10108000BA01660F771FEC81FD814F01860E971E16
:10109000F401E280F380F701F080F0FE0AC0F40171
:1010A000A082EC81FD81E60FF71F0280F381E02D25
:1010B000B0820F5F1F4F4D5F5F4FD4CF11962D5FF2
:1010C0003F4F34CF8BE0DF91CF911F910F91FF9075
:1010D000EF90DF90CF90BF90AF909F908F907F90D8
:1010E0006F905F904F903F902F90089595E0909370
:1010F000643EE091A23EF091A33E0188F289E02D8A
:10110000309709F00994FFCFE091A23EF091A33E01
:101110000388F489E02D309709F0099480E4E6CF44
:101120008091A23E9091A33E0895CF938093A23EDA
:101130009093A33E8091643E853039F0823028F050
:101140008091623E882371F140C01092623EC0E0FF
:10115000A091A23EB091A33E8C2F90E0880F991FE2
:101160001196ED91FC911297E80FF91F0190F08113
:10117000E02D309729F317962D913C911897D901BE
:10118000A80FB91F8D919C910995882329F0809112
:10119000623E8F5F8093623ECF5F8091623E882384
:1011A000B9F2CECF82E08093643EE091A23EF0910E
:1011B000A33E0784F089E02D309711F0099508C00F
:1011C00085E08093643E81E001C08F5F8093623E42
:1011D0008091623E882329F01092623E80E8CF9190
:1011E00085CFCF9108951F93CF93DF93182FA091B0
:1011F000A23EB091A33E15962D913C911697D0E05A
:10120000F901ED0FF11DED0FF11D80819181892B09
:1012100011F0DF5FF5CF53968D919C915497892BF8
:1012200049F1812F90E0880F991FF901E80FF91F0C
:101230000190F081E02D3097E9F01B962D913C91C3
:101240001C97D901A80FB91F8D919C91009791F01F
:1012500064E878E00995C82F811106C083E0809387
:10126000643E1092633E03C082E08093643E1D178B
:1012700020F001C0C2E082E839DF8C2FDF91CF91EE
:101280001F910895E091A23EF091A33E0584F6855A
:10129000E02D09941F93CF93DF931F92CDB7DEB754
:1012A0001982E091A23EF091A33E0588F689E02DD7
:1012B000309749F082E08093643ECE010196099513
:1012C00083E08093643E8091623E81112CC019813D
:1012D000111129C084E08093643EA091A23EB09198
:1012E000A33E8091633E90E0880F991F1396ED9185
:1012F000FC911497E80FF91F0190F081E02D1996E9
:101300002D913C911A97309781F0D901A80FB91F00
:101310008D919C91099581113DC08091633E8F5FB5
:101320008093633EDACF10E03CC01092633EF90137
:10133000E10FF11DE10FF11D0190F081E02D3097DB
:1013400059F00190F081E02D808187FF03C09C91CE
:1013500094609C931F5FEBCF1093633E82E0809379
:10136000643E5796ED91FC915897309711F009958E
:1013700005C08091623E8F5F8093623E10E0809155
:10138000623E882371F01092623E8091633E8064D9
:10139000ADDE07C08091623E8F5F8093623E13E0B6
:1013A000EECF812F0F90DF91CF911F910895809103
:1013B000683E9091693EA091A43EB091A53EED910A
:1013C000FC9111974081518125E0289FB001299F10
:1013D000700D112420E030E084179507A8F41496CE
:1013E000ED91FC911597E20FF31FE60FF71FE081D7
:1013F0002B5F3F4FE0FD02C00196EECF8093683E29
:101400009093693E80E008951092683E1092693E84
:1014100081E00895BC01E091A43EF091A53E86E0F4
:10142000869F9001879F300D1124A281B381A20F66
:10143000B31F11968C9180932A06A281B381A20FCB
:10144000B31F8C918093260695E0969FA001979FED
:10145000500D1124A481B581A40FB51F13968C9152
:1014600080931A06A481B581A40FB51F14968C91A0
:1014700080931B06A481B581A40FB51F8C9181FDBB
:101480009C9384819581DC01A40FB51F8C918C7194
:1014900069F4A281B381A20FB31F1496AC91A295F7
:1014A000AF70B0E0AE53B5468C9101C08FE380932E
:1014B0001C06A281B381A20FB31F12968C918B31AF
:1014C00010F48C5F01C08FE180930506A281B38187
:1014D000A20FB31F15968C9180930106A281B38150
:1014E000A20FB31F13968C9182958F70809319066B
:1014F00082819381FC01E20FF31F83818F708061F1
:10150000809302068091180683608093180681E814
:101510008093000681E08093080608953F924F92E1
:101520005F926F927F928F929F92AF92BF92CF9273
:10153000DF92EF92FF920F931F93CF93DF938091EF
:10154000673E882309F448C1A091A43EB091A53E0E
:10155000C090A63ED090A73E00E010E060E070E0B2
:10156000E12CF12C80E033243394D1E84D2E8824F3
:101570008A94992493946D907C901197F301208123
:101580003181E216F30608F023C1E6012991399171
:101590006E011496ED91FC911597E60FF71F4081AF
:1015A0004C7150E056954795569547954115510514
:1015B00021F041305105B9F002C11296CD91DC9174
:1015C0001397C00FD11F4C814F709D81491710F4A4
:1015D000941B01C090E002C0369527959A95E2F7DA
:1015E00021833283EDC012964D915C911397400F89
:1015F000511FEA010D8002C0369527950A94E2F743
:1016000021833283A380B4802115D2E03D0720F0EE
:101610002F5F314091E005C0A401421B530B9A019A
:1016200090E0E3015A80D0E45D1205C0369527951D
:10163000992319F009C0992339F04FEFA416B40685
:1016400031F440828EE007C07724739401C0712C7E
:101650002A30310590F41496ED91FC911597E60F20
:10166000F71F908197FF30821496ED91FC911597AA
:10167000E60FF71FA382B482A3C0E501CD2FDD27BB
:10168000C295CF709C2FA50144275F70652EA501E0
:10169000407F5527529542954F7045275F704527EB
:1016A0005A2D5F70A52EC43030F09370D695C79533
:1016B000D695C7959C0F71103CC050E8550D52301F
:1016C00010F456E007C053E005C0951768F49F5F1B
:1016D0002F5C3109203D3105C0F706C0CFE06C1604
:1016E00049F063942551310926313105B8F7DFE01F
:1016F0006D120EC0951720F49F5FD5E06D2E08C0C7
:10170000CFE06C2E05C04F3049F04F5F22503109B9
:1017100023303105C0F74F3009F065C04FE0641643
:1017200081F1639445E05FC0992361F091502F5C93
:101730003109203D3105C0F705C0662041F06A94AB
:101740002551310926313105C0F761100DC09923AB
:1017500021F091505AE0652E07C0612C05C044234A
:1017600041F041502250310923303105C0F7411179
:1017700010C06620E9F16A944AE023303105C8F6CA
:1017800008C059132FC02330310540F14FE0A42E7B
:101790004FE0943018F0990F990F9950C0E14C9F89
:1017A000A001112456294A29C92FD0E0DC2FCC27CB
:1017B000D295D07F4C2B5D2B4383548301C0FFCF48
:1017C000DFEFED1AFD0A6B5F7F4F0A5F1F4FD3CE2D
:1017D00092E09093673E0EC083E00CC04FE02FE094
:1017E000A22ED7CF4FE02330310508F073CFD1CFF1
:1017F00040E0CFCFDF91CF911F910F91FF90EF90FD
:10180000DF90CF90BF90AF909F908F907F906F9020
:101810005F904F903F900895CF93DC01892B79F131
:10182000ED91FC9111976081718140E050E020E0E2
:1018300030E090E02617370779F01296ED91FC9191
:101840001397E40FF51FC08181818C2B982B2F5F9C
:101850003F4F4A5F5F4FEECF992399F08091673EEB
:10186000811106C09093220681E08093673E05C0F7
:1018700080912206982B9093220680E003C08BE093
:1018800001C082E0CF910895009731F08093A63E89
:101890009093A73E80E008958BE00895611571054F
:1018A00091F1009781F12091673E222371F124305C
:1018B00071F18093A43E9093A53E6093653E709332
:1018C000663E20EC20931806DC01ED91FC9122810C
:1018D000203421F420911806206205C0203841F4FC
:1018E0002091180628622093180610921E0613C035
:1018F000213879F42091180628622093180626E8EA
:1019000020931E0608C08BE0089583E0089581E0CF
:10191000089582E00895DC01ED91FC91848180318D
:1019200008F080E18093030681E080930B068093AA
:101930000A061092683E1092693E39DD81110AC094
:1019400084E08093673E8091683E9091693E62DDBD
:1019500080E0089582E08093673E08950097C9F083
:10196000DC01ED91FC911197208131812617370719
:1019700090F045E0469F9001479F300D112414964A
:10198000ED91FC911597E20FF31F81E0808380E0D9
:1019900008958BE0089582E00895FC01892BD1F130
:1019A000A081B1818D919C91119786179707A0F125
:1019B00012969C910480F581E02D903459F485E0D5
:1019C000869FD001879FB00D1124AE0FBF1F84E307
:1019D00092E00DC09058923080F485E0869FD0014F
:1019E000879FB00D1124AE0FBF1F87E695E01396B9
:1019F0008D939C93149780E001C082E095E0969FC0
:101A00009001979F300D1124E20FF31F9081926097
:101A1000908308958BE0089582E008951092000667
:101A200040911006509111068091683E9091693E58
:101A30009C01220F331FE091A63EF091A73EE20FDA
:101A4000F31F4083518301968093683E9093693ED3
:101A5000AEDC811108C084E08093673E8091683ECF
:101A60009091693ED7CCE091653EF091663E099435
:101A7000AA1BBB1B51E107C0AA1FBB1FA617B707B4
:101A800010F0A61BB70B881F991F5A95A9F78095D0
:101A90009095BC01CD01089597FB072E16F4009494
:101AA00006D077FD08D0E4DF07FC05D03EF4909522
:101AB00081959F4F0895709561957F4F0895F89493
:021AC000FFCF56
:061AC2003F1C0B050301AF
:101AC8006400200128004600203E0000353E00004A
:101AD8004E0C0000353E0000D20400000C0C000043
:101AE800733E2B3E9C3E283E6401000100040F0516
:101AF8000005041400413E3B3E7A3E0001010010FF
:061B08000401008033100F
:00000001FF
