:1000000019C033C032C031C030C02FC032C02DC083
:100010002CC02BC02AC029C028C027C026C025C09C
:100020004FC0BBC322C021C020C01FC01EC01DC006
:100030001CC01BC011241FBECFEFCDBFDFE3DEBF4E
:100040001EE3A0E0BEE3E2E8FBE102C005900D92F2
:10005000A235B107D9F72EE3A2E5BEE301C01D9298
:10006000A83AB207E1F73ED187CDCACFFAD3D1D2B1
:1000700008951F920F920FB60F9211242F933F9362
:100080004F935F936F937F938F939F93AF93BF93A0
:10009000EF93FF9337D38FD082E080934301FF919A
:1000A000EF91BF91AF919F918F917F916F915F91F0
:1000B0004F913F912F910F900FBE0F901F90189569
:1000C0001F920F920FB60F9211242F933F934F93CD
:1000D0005F936F937F938F939F93AF93BF93EF93B0
:1000E000FF9381E08093770657D0FF91EF91BF9106
:1000F000AF919F918F917F916F915F914F913F91C0
:100100002F910F900FBE0F901F9018958091703E09
:100110008130D1F41092703E289A2FE53AEE80E0BB
:10012000215030408040E1F700C000002898E7EA05
:10013000F1E63197F1F700C0000080E18093003EC6
:1001400081E080935C3E089581E08093703E299A1F
:10015000FFE52AEE30E0F15020403040E1F700C0EA
:1001600000002998E7EAF1E63197F1F700C00000B6
:1001700090E29093003E80935C3E0895E0E5F0E0CD
:100180009081997F892B808380818160808388958D
:1001900080818E7F80830895289A2FE58AEE90E0F3
:1001A000215080409040E1F700C00000289884E092
:1001B00090E0E4DF08958091713E813049F48091B0
:1001C000613E9091623E01968093613E9093623EC3
:1001D00080915C3E813049F480915A3E90915B3E23
:1001E000019680935A3E90935B3E80915A3E909147
:1001F0005B3E853F914030F010925A3E10925B3E3C
:1002000010925C3E8091703E811124C080915D3ED1
:1002100090915E3EA0915F3EB091603E0196A11D1F
:10022000B11D81322FEB920722E0A207B10548F4FD
:1002300080935D3E90935E3EA0935F3EB093603EA0
:10024000089510925D3E10925E3E10925F3E1092B5
:10025000603E5CDF08952091523E3091533E2093E2
:10026000543E3093553EBC01621B730BAB0122F42C
:1002700044275527461B570B453151059CF0AC01CF
:10028000440F551F440F551F440F551F840F951FD2
:10029000820F931F6AE070E048DC6093523E7093D7
:1002A000533E12C0A901440F551F440F551F440F60
:1002B000551F420F531F840F951F6AE070E035DC15
:1002C0006093523E7093533E8091523E9091533EC4
:1002D00040915C3E413019F0821B930B089580E001
:1002E00090E00895C3DE1092713E299A2FE53AEE10
:1002F00080E0215030408040E1F700C000002998A4
:1003000081E08093703EFF24F3940AE010E0C2D1B4
:100310008091653E882309F49FC01092653E80E07D
:1003200090E005D2EC0180E090E00ED29E01281B07
:10033000390BC9012091583E3091593E2093563EC9
:100340003093573EBC01621B730BAB0122F4442770
:100350005527461B570B4531510594F0AC01440F0E
:10036000551F440F551F440F551F840F951F820FB3
:10037000931FB801DADB6093583E7093593E11C069
:10038000A901440F551F440F551F440F551F420F1D
:10039000531F840F951FB801C8DB6093583E7093BC
:1003A000593E4091583E5091593EBA01621B730B21
:1003B000CB01992324F488279927861B970B2417B0
:1003C00035072CF42F2D4F9764F420E00AC0421714
:1003D000530724F44F9724F022E003C020E001C02B
:1003E00020E080915C3E8130B9F18091713E88239C
:1003F00019F0813031F02CC0213071F5F092713E4E
:100400002BC0223081F42091613E3091623E8F2DCD
:100410002734310508F480E01092613E1092623E6C
:100420001092713E16C0213029F41092613E109254
:10043000623E12C08091613E9091623E893E93403F
:1004400058F01092613E1092623E1092713E04C0CC
:1004500080E0813009F45ADE80E090E08FDE57CFF3
:100460000895CF93C82F4AD28823E9F38C2F54D212
:100470004BD28111FDCFCF910895EF92FF920F9350
:100480001F93CF93DF9300D0CDB7DEB78091633E4B
:100490008F7079F401E01EE30F2EF4E1EF2EFEE3FE
:1004A000FF2EF02DF80181918F01DBDFE016F106C0
:1004B000C9F785E5D6DF8091633ED3DF19821A82C2
:1004C00089819A81892B09F045C089819A812FD130
:1004D000192FC7DF812FC5DF89819A8135D1192F67
:1004E000C0DF812FBEDF89819A8121D18C01898172
:1004F0009A812AD19801281B390BC901ACDE192F2A
:10050000B0DF812FAEDF89819A812BD1192FA9DF2E
:10051000812FA7DF89819A8131D188231CF481E062
:10052000A0DF02C080E09DDF89819A81FC01EE0F8F
:10053000FF1F8E0F9F1FFC01EC5CF14C808191DF4F
:1005400089819A81019689839A8389819A81892BED
:1005500009F4BBCF8091643E84DF8091633E91E0DB
:10056000980F9093633E7DDF8AEA7BDF0F900F90B8
:10057000DF91CF911F910F91FF90EF900895E3E8E5
:10058000FEE38081826080830895E0912C3EF091AB
:100590002D3E8081882344F4E091813EF091823E9B
:1005A00080818460808303C081E08093653E65DF45
:1005B0000895882324F481E08093643E09C086FD79
:1005C00003C01092643E04C08F708E5F8093643EBF
:1005D00054DF08958FE79EE3B4D960E070E081E4D2
:1005E0009EE319DA60E070E081E49EE333DA4AE7E3
:1005F0005EE360E08CE29EE313D20895E0E4F1E074
:10060000918192FDFDCF90E080934A0190934B0140
:10061000089580E2F3DFE4E1F4E08081877F808366
:10062000E3E8FEE3108288E29EE38183928384E222
:100630009EE3838394838CE19EE38583968380E2AB
:100640009EE38783908784E19EE38187928788E198
:100650009EE3838794878BEE9AE0858796878AEE60
:1006600092E08787908B89ED92E0818B928B8FEB64
:1006700092E0838B948B158A168A85EC92E0878BA7
:10068000908FCF01AFD5A9D58093813E9093823EC4
:10069000E7DE0895E091813EF091823E808180FF07
:1006A0000BC080E0FDD5811107C0E091813EF09143
:1006B000823E80818E7F8083E091813EF091823EF8
:1006C000808181FF0EC03BD6811102C040D602C09E
:1006D00080E86FDFE091813EF091823E80818D7FE6
:1006E0008083E091813EF091823E808182FF09C04B
:1006F00081608083E091813EF091823E80818B7F9A
:10070000808308958091793E8F5F8093793E9091A8
:10071000003E981758F41092793EE3E8FEE380819A
:10072000816080838091003E90E06FD108959C01AC
:10073000220F331F220F331F820F931FFC01E65835
:10074000F14C8181928108959C01220F331F820F09
:10075000931FFC01EE0FFF1FE456F14C848195813D
:1007600008959C01220F331F220F331F820F931F06
:10077000FC01E658F14C8381948108959C01220F7D
:10078000331F820F931F880F991FE091303EF09125
:10079000313EE80FF91F808108951F920F920FB626
:1007A0000F9211242F933F934F935F936F937F93F7
:1007B0008F939F93AF93BF93EF93FF938CD9FF9148
:1007C000EF91BF91AF919F918F917F916F915F91C9
:1007D0004F913F912F910F900FBE0F901F90189542
:1007E00080E0089542E068ED88E790E066D041E05F
:1007F00068ED81E690E061D040E068ED80E690E051
:100800005CD0E0E6F0E0838180FDFDCF80E00895DC
:10081000789480E00895E0E1F4E08081886081933D
:10082000E83184E0F807C9F7E0E3F4E0808188600C
:100830008193E83384E0F807C9F7E0E5F4E08081CC
:1008400088608193E83584E0F807C9F70895239814
:10085000E3E3F4E08081877F8083229A2A9844D062
:100860000895D9DF0098E0E1F4E08081886080831A
:100870000298E2E1F4E08081886080830398E3E1FC
:10088000F4E08081886080830598E5E1F4E0808170
:10089000886080830698E6E1F4E080818860808348
:1008A000209A2898219A29989DDF81E00AD03CD08F
:1008B000CEDFAEDF14D094DF0895FC0164BF408327
:1008C0000895E0E4F1E081818111FDCFE0E4F1E001
:1008D00081E88083178282E0828380E0089583E04C
:1008E0008093500080E00895E0E0F8E08BE591E02F
:1008F0008087918780E4868380E008958091040852
:1009000085FB882780F908958091040886FB882755
:1009100080F991E089270895E0E0F8E0948195FF5F
:10092000FDCF80930208089584E08093A00081E0C9
:100930008093A10080E00895CF92DF92FF920F9301
:100940001F93CF93DF93EC01AE81BF81EB01CC0FFE
:10095000DD1FC60FD71FCA0FDB1FFA80FC014481C1
:100960005581E6E0E69F9001E79F300D11248A0152
:10097000020F131FF80122813381F9012181328195
:10098000F80104811581201B310BE8812E1B3109F0
:10099000EC01EA81FB8100811181FA0140E050E025
:1009A0004017510739F146175707F9F012968C9105
:1009B0001297F8121AC0808185588230E8F0C480FE
:1009C000D58082819381EC0189819A81C816D906EC
:1009D00060F48C199D09CC91D0E0C817D90728F490
:1009E0008C1B9D0B2817390738F04F5F5F4F13960C
:1009F0003696D6CF80E001C081E0DF91CF911F9184
:100A00000F91FF90DF90CF9008952091663E309136
:100A1000673E820F931F8093663E9093673E0895D2
:100A20000097D9F041155105C1F026E0629FB00151
:100A30001124DC011496ED91FC911597E60FF71F38
:100A400021E0208314968D919C911597FC01E60F6F
:100A5000F71F4283538380E008958BE008952F921F
:100A60003F924F925F926F927F928F929F92AF923E
:100A7000BF92CF92DF92EF92FF920F931F93CF938B
:100A8000DF93009709F47BC3EC01A12CB12C812CDE
:100A9000912C212CD12C33E0C32E45E8642E56E84E
:100AA000752E67E0362E72E0472EE8E05E2EEA8172
:100AB000FB81808191818816990608F0A3C1750198
:100AC000EE0CFF1C0C811D810E0D1F1DD8018C9199
:100AD000843009F4A1C038F4823001F108F049C033
:100AE000813059F088C1853809F4C0C0863809F4CE
:100AF000F4C0873009F07FC135C1D8011296ED915D
:100B0000FC91139780818E7109F067C14C928C81A2
:100B10009D81FC01EE0DFF1D51825FC1F801218115
:100B2000222329F10280F381E02D253020F08181FC
:100B30009281D8010EC0D80114968D919C91159781
:100B4000418152818417950769F04817590730F49D
:100B5000019714968D939C93159704C00196F80104
:100B6000848395832150D80111962C9336C1F801C6
:100B70002FC1D80114962D913C91159712968D9105
:100B80009C911397DC0111964D915C91129724175B
:100B9000350709F430C18E819F8142175307E0F475
:100BA000241B350BDC01AA0DBB1D8C9190E0058048
:100BB00002C0959587950A94E2F799272817390777
:100BC00008F419C18481882309F415C1F801308221
:100BD000EA81FB81248119C0FC01EA0DFB1D421B47
:100BE000530B808190E04817590708F404C18281B3
:100BF000882329F0B401CE019FDE8111FCC0E4E01E
:100C0000D801EC93EA81FB8122818C819D81FC01DA
:100C1000EE0DFF1D2183E1C0D80114962D913C916A
:100C200015971296ED91FC9113978181928182170D
:100C3000930708F4D6C0EE81FF81EA0DFB1D821BED
:100C4000930B208130E02817390708F0AEC082816D
:100C5000882329F0B401CE016FDE8111CCC0F801E8
:100C60008181882309F467C08150B6C0A881B98109
:100C7000808513968C93EC81FD81EE0DFF1D4481E0
:100C80005581A281B38111968D919C911297841701
:100C90009507C0F0AE81BF81AA0DBB1D6C91262FB8
:100CA00030E011967C917F5F02C0359527957A954B
:100CB000E2F7841B950B621B262F30E028173907BB
:100CC00008F497C07082EA81FB8122818C819D812A
:100CD000FC01EE0DFF1D218342C0D80114966D91D9
:100CE0007C9115971296ED91FC9113972181328199
:100CF0002617370758F411968C911197811102C06D
:100D0000CC9277C08150F801818373C0EE81FF815E
:100D1000EA0DFB1D8081482F50E091819F5F02C04A
:100D2000559547959A95E2F7261B370B841B90E063
:100D30008217930760F4D8016C92EA81FB812381CA
:100D40008C819D81FC01EE0DFF1D218352C0F801B5
:100D50008181811102C0C0824CC0815081832224D4
:100D600023943BC0D80114962D913C91159712966F
:100D70008D919C911397DC0111968D919C91129706
:100D80008217930768F5281B390BAE81BF81AA0D26
:100D9000BB1D8C9190E0058002C0959587950A94C3
:100DA000E2F799272817390718F4F801C0821AC00A
:100DB000D80111968C91119781110CC081E08C9310
:100DC0008C819D81FC01EE0DFF1D0280F381E02DE1
:100DD000C08211C08150F8018183DD24D3940BC0FF
:100DE000D801CC928C819D81FC01EE0DFF1D1182FA
:100DF00002C022242394BFEF8B1A9B0AE3E0AE0EBD
:100E0000B11C55CEE881F981808187FF23C040E085
:100E100050E020E030E0EA81FB8180819181281759
:100E2000390798F4EC81FD81E40FF51FA281B381AD
:100E30008C9180FD05C09081977F11F081608C932B
:100E40002F5F3F4F4A5F5F4FE6CFE881F981808196
:100E50008F778083D11007C0E881F98121106FC09E
:100E600080818E7F6EC0EA81FB8181858823A1F31A
:100E7000E881F981808180688083EA81FB818185B6
:100E8000813051F740E050E020E030E096E0D92E8C
:100E9000EA81FB816081718126173707E8F60C81B2
:100EA0001D81FA01EE0FFF1FE00FF11F8081982FC7
:100EB000977FA1F1853811F08330B1F5EE80FF8086
:100EC000D701A40FB51F1296BC90BB2039F180E06A
:100ED00090E0C12C86179707F8F428173907D1F04E
:100EE000D89ED001D99EB00D1124A00FB11FAC9196
:100EF000A43011F0A63871F4DC01AA0FBB1FA80FB3
:100F0000B91FAE0DBF1D1296AC91BA1203C0CB0132
:100F1000CC24C3940196DECFC11006C00280F381B9
:100F2000E02D80818E7F05C00280F381E02D8081DD
:100F3000816080832F5F3F4F4D5F5F4FA9CF8081DE
:100F4000816080838091663E9091673EE881F9815F
:100F500021813281A90148535F4F4817590738F45E
:100F6000821B930BAA24A394A3E0BA2E44C0821739
:100F7000930710F080E004C1821B930B0197893C1A
:100F80009105C0F3EFCF885C9109E881F981218157
:100F9000328128533F4F218332832381211196C010
:100FA0002481222311F021502483E881F9812581B5
:100FB000222311F0215025838A809B80D40116962C
:100FC0002C91169721111BC08A809B80F4012781E8
:100FD000211148C0EA81FB812381222361F020E0B6
:100FE00030E0A0E0B0E0EA81FB8140815181A417AC
:100FF000B50708F46EC0893C910528F6BBCF08817F
:101000001981F80124812111DFCFED90FC9060E07F
:1010100070E040E050E04E155F05F1F0EC81FD819D
:10102000E60FF71F2081233011F0283081F424814E
:101030003581C280D380D6011196CD90DC90129775
:101040002C153D0520F42F5F3F4F248335834F5FE0
:101050005F4F6A5F7F4FDFCFF4012681D80114967E
:101060002C93B2CF08811981D80115962C912111AA
:10107000B1CFE080F18060E070E040E050E04E15DC
:101080005F05F1F0EC81FD81E60FF71F2081233031
:1010900011F0283081F424813581C280D380D601BB
:1010A0001196CD90DC901297C216D30620F42150F1
:1010B0003109248335834F5F5F4F6A5F7F4FDFCFF6
:1010C000F4012781D80115962C9384CF21502383D6
:1010D00081CFA901440F551FEC81FD81E40FF51F5D
:1010E0006081653809F047C06181662319F061505D
:1010F000618341C0A0826C817D81FB01E40FF51FFB
:101100000280F381E02DB082EE81FF81E20FF31FB8
:10111000D280DD2081F140E050E000E010E0EA8183
:10112000FB81608171810617170728F5EE81FF8129
:10113000E40FF51F6281D61219C0BA01660F771F3E
:10114000EC81FD814F01860E971EF401E280F38051
:10115000F701F080F0FE0AC0F401A082EC81FD816D
:10116000E60FF71F0280F381E02DB0820F5F1F4F63
:101170004D5F5F4FD4CF11962D5F3F4F34CF8BE043
:10118000DF91CF911F910F91FF90EF90DF90CF9063
:10119000BF90AF909F908F907F906F905F904F9097
:1011A0003F902F90089595E090936A3EE091A23E83
:1011B000F091A33E0188F289E02D309709F009945F
:1011C000FFCFE091A23EF091A33E0388F489E02D89
:1011D000309709F0099480E4E6CF8091A23E909187
:1011E000A33E0895CF938093A23E9093A33E809117
:1011F0006A3E853039F0823028F08091683E88233D
:1012000071F140C01092683EC0E0A091A23EB09142
:10121000A33E8C2F90E0880F991F1196ED91FC91C1
:101220001297E80FF91F0190F081E02D309729F314
:1012300017962D913C911897D901A80FB91F8D9140
:101240009C910995882329F08091683E8F5F809357
:10125000683ECF5F8091683E8823B9F2CECF82E0AE
:1012600080936A3EE091A23EF091A33E0784F0890C
:10127000E02D309711F0099508C085E080936A3E13
:1012800081E001C08F5F8093683E8091683E882333
:1012900029F01092683E80E8CF9185CFCF910895D4
:1012A0001F93CF93DF93182FA091A23EB091A33E3E
:1012B00015962D913C911697D0E0F901ED0FF11D97
:1012C000ED0FF11D80819181892B11F0DF5FF5CF4A
:1012D00053968D919C915497892B49F1812F90E0E1
:1012E000880F991FF901E80FF91F0190F081E02D97
:1012F0003097E9F01B962D913C911C97D901A80FCE
:10130000B91F8D919C91009791F061EE78E009955D
:10131000C82F811106C083E080936A3E1092693E17
:1013200003C082E080936A3E1D1720F001C0C2E036
:1013300082E839DF8C2FDF91CF911F910895E091E2
:10134000A23EF091A33E0584F685E02D09941F93FB
:10135000CF93DF931F92CDB7DEB71982E091A23E03
:10136000F091A33E0588F689E02D309749F082E0A0
:1013700080936A3ECE010196099583E080936A3E90
:101380008091683E81112CC01981111129C084E01F
:1013900080936A3EA091A23EB091A33E8091693EA7
:1013A00090E0880F991F1396ED91FC911497E80F28
:1013B000F91F0190F081E02D19962D913C911A971B
:1013C000309781F0D901A80FB91F8D919C91099593
:1013D00081113DC08091693E8F5F8093693EDACF75
:1013E00010E03CC01092693EF901E10FF11DE10FE0
:1013F000F11D0190F081E02D309759F00190F081BE
:10140000E02D808187FF03C09C9194609C931F5FB7
:10141000EBCF1093693E82E080936A3E5796ED9140
:10142000FC915897309711F0099505C08091683E5E
:101430008F5F8093683E10E08091683E882371F052
:101440001092683E8091693E8064ADDE07C0809155
:10145000683E8F5F8093683E13E0EECF812F0F9040
:10146000DF91CF911F91089580916E3E90916F3ED4
:10147000A091A43EB091A53EED91FC9111974081C1
:10148000518125E0289FB001299F700D112420E093
:1014900030E084179507A8F41496ED91FC91159708
:1014A000E20FF31FE60FF71FE0812B5F3F4FE0FDD8
:1014B00002C00196EECF80936E3E90936F3E80E027
:1014C000089510926E3E10926F3E81E00895BC0127
:1014D000E091A43EF091A53E86E0869F9001879F13
:1014E000300D1124A281B381A20FB31F11968C91EC
:1014F00080932A06A281B381A20FB31F8C9180939F
:10150000260695E0969FA001979F500D1124A48177
:10151000B581A40FB51F13968C9180931A06A481F0
:10152000B581A40FB51F14968C9180931B06A481DE
:10153000B581A40FB51F8C9181FD9C938481958109
:10154000DC01A40FB51F8C918C7169F4A281B38169
:10155000A20FB31F1496AC91A295AF70B0E0A4583F
:10156000B4468C9101C08FE380931C06A281B381A5
:10157000A20FB31F12968C918B3110F48C5F01C0B7
:101580008FE180930506A281B381A20FB31F159648
:101590008C9180930106A281B381A20FB31F139691
:1015A0008C9182958F708093190682819381FC01C2
:1015B000E20FF31F83818F70806180930206809118
:1015C000180683608093180681E88093000681E006
:1015D0008093080608953F924F925F926F927F9298
:1015E0008F929F92AF92BF92CF92DF92EF92FF9233
:1015F0000F931F93CF93DF9380916D3E882309F45F
:1016000048C1A091A43EB091A53EC090A63ED09006
:10161000A73E00E010E060E070E0E12CF12C80E0FB
:1016200033243394D1E84D2E88248A9499249394BA
:101630006D907C901197F30120813181E216F306C1
:1016400008F023C1E601299139916E011496ED91BC
:10165000FC911597E60FF71F40814C7150E05695AD
:101660004795569547954115510521F04130510553
:10167000B9F002C11296CD91DC911397C00FD11F22
:101680004C814F709D81491710F4941B01C090E06C
:1016900002C0369527959A95E2F721833283EDC0F3
:1016A00012964D915C911397400F511FEA010D80E6
:1016B00002C0369527950A94E2F721833283A380EE
:1016C000B4802115D2E03D0720F02F5F314091E03A
:1016D00005C0A401421B530B9A0190E0E3015A801C
:1016E000D0E45D1205C036952795992319F009C0FD
:1016F000992339F04FEFA416B40631F440828EE0FE
:1017000007C07724739401C0712C2A30310590F4FE
:101710001496ED91FC911597E60FF71F908197FFB6
:1017200030821496ED91FC911597E60FF71FA38276
:10173000B482A3C0E501CD2FDD27C295CF709C2FC9
:10174000A50144275F70652EA501407F552752955E
:1017500042954F7045275F7045275A2D5F70A52E23
:10176000C43030F09370D695C795D695C7959C0F29
:1017700071103CC050E8550D523010F456E007C0CF
:1017800053E005C0951768F49F5F2F5C3109203D39
:101790003105C0F706C0CFE06C1649F063942551BF
:1017A000310926313105B8F7DFE06D120EC095170B
:1017B00020F49F5FD5E06D2E08C0CFE06C2E05C0F1
:1017C0004F3049F04F5F2250310923303105C0F7C7
:1017D0004F3009F065C04FE0641681F1639445E035
:1017E0005FC0992361F091502F5C3109203D310594
:1017F000C0F705C0662041F06A94255131092631B1
:101800003105C0F761100DC0992321F091505AE0C5
:10181000652E07C0612C05C0442341F04150225081
:10182000310923303105C0F7411110C06620E9F1BC
:101830006A944AE023303105C8F608C059132FC016
:101840002330310540F14FE0A42E4FE0943018F0E2
:10185000990F990F9950C0E14C9FA001112456296E
:101860004A29C92FD0E0DC2FCC27D295D07F4C2B32
:101870005D2B4383548301C0FFCFDFEFED1AFD0AD8
:101880006B5F7F4F0A5F1F4FD3CE92E090936D3E08
:101890000EC083E00CC04FE02FE0A22ED7CF4FE068
:1018A0002330310508F073CFD1CF40E0CFCFDF91A7
:1018B000CF911F910F91FF90EF90DF90CF90BF904D
:1018C000AF909F908F907F906F905F904F903F90E0
:1018D0000895CF93DC01892B79F1ED91FC9111975B
:1018E0006081718140E050E020E030E090E0261718
:1018F000370779F01296ED91FC911397E40FF51FDD
:10190000C08181818C2B982B2F5F3F4F4A5F5F4FA7
:10191000EECF992399F080916D3E811106C090938E
:10192000220681E080936D3E05C080912206982BAF
:101930009093220680E003C08BE001C082E0CF914B
:101940000895009731F08093A63E9093A73E80E0E3
:1019500008958BE008956115710591F1009781F16B
:1019600020916D3E222371F1243071F18093A43EC9
:101970009093A53E60936B3E70936C3E20EC209359
:101980001806DC01ED91FC912281203421F4209194
:101990001806206205C0203841F4209118062862FC
:1019A0002093180610921E0613C0213879F4209156
:1019B000180628622093180626E820931E0608C001
:1019C0008BE0089583E0089581E0089582E0089512
:1019D000DC01ED91FC918481803108F080E18093FD
:1019E000030681E080930B0680930A0610926E3EF8
:1019F00010926F3E39DD81110AC084E080936D3E04
:101A000080916E3E90916F3E62DD80E0089582E0AD
:101A100080936D3E08950097C9F0DC01ED91FC9133
:101A20001197208131812617370790F045E0469FB6
:101A30009001479F300D11241496ED91FC9115975C
:101A4000E20FF31F81E0808380E008958BE008952A
:101A500082E00895FC01892BD1F1A081B1818D91A3
:101A60009C91119786179707A0F112969C9104807C
:101A7000F581E02D903459F485E0869FD001879F51
:101A8000B00D1124AE0FBF1F84E392E00DC090583B
:101A9000923080F485E0869FD001879FB00D11249D
:101AA000AE0FBF1F87E695E013968D939C93149716
:101AB00080E001C082E095E0969F9001979F300DF5
:101AC0001124E20FF31F90819260908308958BE0C0
:101AD000089582E0089510920006409110065091FA
:101AE000110680916E3E90916F3E9C01220F331F34
:101AF000E091A63EF091A73EE20FF31F4083518391
:101B0000019680936E3E90936F3EAEDC811108C0CB
:101B100084E080936D3E80916E3E90916F3ED7CC75
:101B2000E0916B3EF0916C3E099497FB072E16F402
:101B3000009406D077FD08D00BD007FC05D03EF40A
:101B4000909581959F4F0895709561957F4F089569
:101B5000AA1BBB1B51E107C0AA1FBB1FA617B707D3
:101B600010F0A61BB70B881F991F5A95A9F78095EF
:0C1B70009095BC01CD010895F894FFCFC2
:061B7C003F1C0B050301F4
:101B8200205FB400864A03EB00000000000000AAB8
:101B920055016EA02C3E0000413E0000AB0C00003F
:101BA200413E00002F050000690C0000733E373EE5
:101BB2009C3E343E6401000100040F05000504143C
:101BC200004D3E473E7A3E000101000003010080C5
:021BD2003310CE
:00000001FF
