:1000000019C033C032C031C030C02FC02EC030C084
:100010002CC02BC02AC029C028C027C026C025C09C
:100020004EC02AC422C021C020C01FC01EC01DC097
:100030001CC01BC011241FBECFEFCDBFDFE3DEBF4E
:100040001EE3A0E0BEE3ECE6FCE102C005900D92E9
:10005000AA35B107D9F72EE3AAE5BEE301C01D9288
:10006000AE3BB207E1F730D1FCCDCACF67D452C363
:100070001F920F920FB60F9211242F933F934F931D
:100080005F936F937F938F939F93AF93BF93EF9300
:10009000FF93B2D380D081E080935301FF91EF9121
:1000A000BF91AF919F918F917F916F915F914F9190
:1000B0003F912F910F900FBE0F901F9018951F9298
:1000C0000F920FB60F9211242F933F934F935F938C
:1000D0006F937F938F939F93AF93BF93EF93FF9310
:1000E00081E0809377064BD0FF91EF91BF91AF9164
:1000F0009F918F917F916F915F914F913F912F9140
:100100000F900FBE0F901F9018958091003E909118
:10011000013E089581E080935C3E08958091033E06
:10012000813071F41092033E289A2FE53AEE90E068
:10013000215030409040E1F700C0000028980EC0E8
:1001400081E08093033E299A2FE53AEE90E021501A
:1001500030409040E1F700C0000029988093673E4E
:100160000895E0E5F0E09081997F892B808380817C
:1001700081608083889580818E7F80830895289A0E
:100180002FE58AEE90E0215080409040E1F700C0DA
:1001900000002898FFCF80916E3E813049F4809115
:1001A0006C3E90916D3E019680936C3E90936D3EB7
:1001B0008091673E813049F48091653E9091663E22
:1001C00001968093653E9093663E8091653E909146
:1001D000663E409730F01092653E1092663E109257
:1001E000673E8091033E811123C08091683E9091CB
:1001F000693EA0916A3EB0916B3E0196A11DB11D72
:100200008A3F25E19207A105B10548F48093683E35
:100210009093693EA0936A3EB0936B3E089510920E
:10022000683E1092693E10926A3E10926B3E76CF05
:10023000089540915F3E5091603E9C01241B350B18
:10024000B90137FF04C066277727621B730BE09163
:10025000063EF091073E6E177F0768F4E091043E7A
:10026000F091053E6E177F0758F0840F951F97FD9C
:1002700001969595879580935D3E90935E3E0FC065
:10028000E9E0E49FB001E59F700D1124860F971FF0
:100290006AE070E0D3DC60935D3E70935E3E8091D7
:1002A0005D3E90915E3E80935F3E9093603E809174
:1002B000673E813011F420E030E0C90137FF03C010
:1002C0009195819591090895D1DE299A2FE58AEEBD
:1002D00090E0215080409040E1F700C00000299854
:1002E00019E0CAE0D0E007E0A89554D28091713EB1
:1002F000882309F43FC180E090E088D27C0180E04F
:1003000090E091D2A701481B590B2091613E30919A
:10031000623E7A01E21AF30AB701F7FE04C06627CB
:1003200077276E197F09A091063EB091073E6A17A4
:100330007B0718F11E141F0414F092E001C091E035
:100340004093633E5093643E10925A3E10927C3E1E
:1003500010927D3EE0915B3E81E08E0F80935B3E8C
:10036000F0E0EE0FFF1FEC57F14C60837183823099
:1003700008F482C010925B3E7FC08091043E909151
:10038000053EE0915A3E6817790708F456C0CA0145
:10039000820F931F97FD0196959587958093633EF5
:1003A0009093643E81E08E0F80935A3EF0E0EE0F12
:1003B000FF1FE458F14CE082F182843010F010927B
:1003C0005A3E20917C3E30917D3E80917E3E9091C0
:1003D0007F3E820F931F2091803E3091813E820F9D
:1003E000931F2091823E3091833E820F931F9C0188
:1003F00097FF04C022273327281B390B2A173B07F6
:10040000C0F110925A3E10927C3E10927D3EE091D7
:100410005B3E41E04E0F40935B3EF0E0EE0FFF1F6E
:10042000EC57F14C20833183423010F010925B3E48
:100430001816190604F192E01FC0129FC001139F05
:10044000900D1124840F951FBE01F8DB6093633E6D
:100450007093643E81E08E0F80935A3EF0E0EE0F81
:10046000FF1FE458F14C10821182843010F010927A
:100470005A3E90E001C091E02091633E3091643E8D
:100480002093613E3093623E8091673E813009F453
:1004900071C080916E3E882319F0813039F062C0BE
:1004A000913009F05FC090936E3E5CC0913029F4AA
:1004B00010926C3E10926D3E55C020916C3E309172
:1004C0006D3E2F31310538F010926C3E10926D3E2A
:1004D00010926E3E47C0923009F044C080916C3E4D
:1004E00090916D3E0297B0F12091843E3091853E0F
:1004F0008091863E9091873E820F931F96958795B7
:100500004091003E5091013E149F9001159F300D87
:100510001124820F931FBE017DDB9B016093003E7F
:100520007093013E069FC001079F900D1124BE01EC
:1005300071DB6093063E7093073EC901880F991FD7
:10054000880F991FBE0166DB6093043E7093053EE1
:1005500081E001C080E010926C3E10926D3E1092DE
:100560006E3E01C080E01092713E10925C3E813080
:1005700009F4D4DD80915C3E8111B6CE80E090E03C
:10058000F0DDB2CE0895CF93C82F27D28823E9F3A8
:100590008C2F31D228D28111FDCFCF9108950F93A6
:1005A0001F93CF93DF9300D0CDB7DEB780916F3E1E
:1005B0008F7041F085E5E7DF80916F3EE4DF1982BF
:1005C0001A8249C008E01EE3FEE30B311F0791F3D6
:1005D000F80181918F01D7DFF7CF89819A8116D1F8
:1005E000192FD1DF812FCFDF89819A811CD18DDD39
:1005F000192FC9DF812FC7DF89819A8107D18C012B
:1006000089819A8110D19801281B390BC90111DE0B
:10061000192FB9DF812FB7DF89819A8111D1192F65
:10062000B2DF812FB0DF89819A8117D187FF19C08E
:1006300081E0A9DF89819A81FC01EE0FFF1F8E0FF7
:100640009F1FFC01E55CF14C80819DDF89819A81CF
:10065000019689839A8389819A81892B09F4BDCF78
:1006600002C080E0E6CF8091703E8DDF80916F3ECA
:1006700091E0980F90936F3E86DF8AEA84DF0F90B7
:100680000F90DF91CF911F910F910895E9E9FEE35B
:100690008081826080830895E091333EF091343E02
:1006A000808187FF08C0E091973EF091983E80815D
:1006B0008460808303C081E08093713E70CF87FFA8
:1006C00002C081E007C086FD03C01092703E04C0E6
:1006D0008F708E5F8093703E62CF85E99EE3A6D9CE
:1006E00060E070E088E49EE30BDA60E070E088E4AC
:1006F0009EE325DA40E95EE360E083E39EE305C222
:100700009091410192FDFCCF90E080934A0190933B
:100710004B01089580E2F4DFE4E1F4E08081877F1B
:100720008083E9E9FEE310828FE29EE38183928376
:100730008BE29EE38383948383E29EE385839683A7
:1007400087E29EE3878390878BE19EE38187928790
:100750008FE19EE38387948780E69BE08587968779
:100760008DE693E08787908B8FE593E0818B928B6A
:1007700086E493E0838B948B158A168A8CE493E04D
:10078000878B908FCF01A3D59DD58093973E909373
:10079000983EF8CEE091973EF091983E808180FFA0
:1007A0000BC080E0F2D5811107C0E091973EF09137
:1007B000983E80818E7F8083E091973EF091983EB5
:1007C000808181FF0EC030D6811102C035D602C0B3
:1007D00080E875DFE091973EF091983E80818D7FB3
:1007E0008083E091973EF091983E808182FF03C024
:1007F0008B7F8160808308958DDCE9E9FEE3808151
:10080000816080838091023E90E074C125E0AC015C
:10081000249FC001259F900D1124FC01E057F14C4D
:1008200081819281089526E0AC01249FC001259F1B
:10083000900D1124FC01EE54F14C848195810895B2
:1008400025E0AC01249FC001259F900D1124FC01DF
:10085000E057F14C83819481089526E0AC01249FF8
:10086000C001259F900D1124E091373EF091383E54
:10087000E80FF91F808108951F920F920FB60F9213
:1008800011242F933F934F935F936F937F938F9395
:100890009F93AF93BF93EF93FF9392D9FF91EF9103
:1008A000BF91AF919F918F917F916F915F914F9188
:1008B0003F912F910F900FBE0F901F90189580E0E1
:1008C000089542E068ED88E790E064D041E068ED8B
:1008D00081E690E05FD040E068ED80E690E05AD09D
:1008E0008091630080FDFCCF80E00895789480E0E3
:1008F0000895E0E1F4E0808188608193E83184E04C
:10090000F807C9F7E0E3F4E0808188608193E83379
:1009100084E0F807C9F7E0E5F4E08081886081931E
:10092000E83584E0F807C9F708952398E3E3F4E095
:100930008081877F8083229A2A9845C0DADF0098D9
:10094000E0E1F4E08081886080830298E2E1F4E0F5
:100950008081886080830398E3E1F4E0808188608F
:1009600080830598E5E1F4E08081886080830698C3
:10097000E6E1F4E0808188608083209A2898219ABB
:1009800029989FDF81E00AD03DD0CFDF43D0AEDF92
:1009900015D095CFFC0164BF40830895809151012B
:1009A0008111FCCF1092470189E48093500110928D
:1009B000550181E08093520180E0089583E08093A7
:1009C000500080E00895E0E0F8E08BE591E080875A
:1009D000918780E4868380E008958091040885FBF8
:1009E000882780F908958091040886FB882780F97C
:1009F00091E0892708959091040895FFFCCF80939A
:100A00000208089584E08093A00081E08093A10013
:100A100080E0089548E068ED80E091E0BBDF80E091
:100A20000895CF92DF92FF920F931F93CF93DF939E
:100A3000EC01AE81BF81EB01CC0FDD1FC60FD71FCC
:100A4000CA0FDB1FFA80FC0144815581E6E0E69F76
:100A50009001E79F300D11248A01020F131FF80146
:100A600022813381F90121813281F80104811581CC
:100A7000201B310BE8812E1B3109EC01EA81FB813F
:100A800000811181FA0140E050E04017510739F12F
:100A900046175707F9F012968C911297F8121AC060
:100AA000808185588230E8F0C480D580828193812E
:100AB000EC0189819A81C816D90660F48C199D09C8
:100AC000CC91D0E0C817D90728F48C1B9D0B2817B0
:100AD000390738F04F5F5F4F13963696D6CF80E0D8
:100AE00001C081E0DF91CF911F910F91FF90DF90C6
:100AF000CF9008952091723E3091733E820F931FE4
:100B00008093723E9093733E08950097D9F04115FB
:100B10005105C1F026E0629FB0011124DC0114965A
:100B2000ED91FC911597E60FF71F21E020831496B5
:100B30008D919C911597FC01E60FF71F428353831B
:100B400080E008958BE008952F923F924F925F923C
:100B50006F927F928F929F92AF92BF92CF92DF92CD
:100B6000EF92FF920F931F93CF93DF93009709F4B7
:100B70007BC3EC01A12CB12C812C912C212CD12CEC
:100B800033E0C32E45E8642E56E8752E67E0362E16
:100B900072E0472EE8E05E2EEA81FB818081918140
:100BA0008816990608F0A3C17501EE0CFF1C0C8194
:100BB0001D810E0D1F1DD8018C91843009F4A1C038
:100BC00038F4823001F108F049C0813059F088C111
:100BD000853809F4C0C0863809F4F4C0873009F0BC
:100BE0007FC135C1D8011296ED91FC911397808198
:100BF0008E7109F067C14C928C819D81FC01EE0DD4
:100C0000FF1D51825FC1F8012181222329F1028059
:100C1000F381E02D253020F081819281D8010EC032
:100C2000D80114968D919C9115974181528184171A
:100C3000950769F04817590730F4019714968D937A
:100C40009C93159704C00196F801848395832150E5
:100C5000D80111962C9336C1F8012FC1D8011496F2
:100C60002D913C91159712968D919C911397DC01D3
:100C700011964D915C9112972417350709F430C1F4
:100C80008E819F8142175307E0F4241B350BDC0152
:100C9000AA0DBB1D8C9190E0058002C095958795AB
:100CA0000A94E2F799272817390708F419C18481B3
:100CB000882309F415C1F8013082EA81FB8124817F
:100CC00019C0FC01EA0DFB1D421B530B808190E013
:100CD0004817590708F404C18281882329F0B40118
:100CE000CE019FDE8111FCC0E4E0D801EC93EA81E3
:100CF000FB8122818C819D81FC01EE0DFF1D2183F2
:100D0000E1C0D80114962D913C9115971296ED9162
:100D1000FC911397818192818217930708F4D6C0C2
:100D2000EE81FF81EA0DFB1D821B930B208130E0D9
:100D30002817390708F0AEC08281882329F0B40152
:100D4000CE016FDE8111CCC0F8018181882309F4C6
:100D500067C08150B6C0A881B981808513968C93F5
:100D6000EC81FD81EE0DFF1D44815581A281B3818F
:100D700011968D919C91129784179507C0F0AE81C2
:100D8000BF81AA0DBB1D6C91262F30E011967C917E
:100D90007F5F02C0359527957A95E2F7841B950B06
:100DA000621B262F30E02817390708F497C070829D
:100DB000EA81FB8122818C819D81FC01EE0DFF1D6A
:100DC000218342C0D80114966D917C91159712969B
:100DD000ED91FC911397218132812617370758F442
:100DE00011968C911197811102C0CC9277C08150DD
:100DF000F801818373C0EE81FF81EA0DFB1D8081C4
:100E0000482F50E091819F5F02C0559547959A9574
:100E1000E2F7261B370B841B90E08217930760F4E0
:100E2000D8016C92EA81FB8123818C819D81FC0138
:100E3000EE0DFF1D218352C0F8018181811102C096
:100E4000C0824CC081508183222423943BC0D801AE
:100E500014962D913C91159712968D919C91139714
:100E6000DC0111968D919C9112978217930768F57A
:100E7000281B390BAE81BF81AA0DBB1D8C9190E060
:100E8000058002C0959587950A94E2F7992728175F
:100E9000390718F4F801C0821AC0D80111968C9154
:100EA000119781110CC081E08C938C819D81FC0194
:100EB000EE0DFF1D0280F381E02DC08211C0815034
:100EC000F8018183DD24D3940BC0D801CC928C81AE
:100ED0009D81FC01EE0DFF1D118202C0222423948E
:100EE000BFEF8B1A9B0AE3E0AE0EB11C55CEE88132
:100EF000F981808187FF23C040E050E020E030E0AE
:100F0000EA81FB81808191812817390798F4EC816F
:100F1000FD81E40FF51FA281B3818C9180FD05C096
:100F20009081977F11F081608C932F5F3F4F4A5FD4
:100F30005F4FE6CFE881F98180818F778083D11080
:100F400007C0E881F98121106FC080818E7F6EC05B
:100F5000EA81FB8181858823A1F3E881F981808181
:100F600080688083EA81FB818185813051F740E090
:100F700050E020E030E096E0D92EEA81FB816081EC
:100F8000718126173707E8F60C811D81FA01EE0FF3
:100F9000FF1FE00FF11F8081982F977FA1F1853807
:100FA00011F08330B1F5EE80FF80D701A40FB51F9B
:100FB0001296BC90BB2039F180E090E0C12C8617DE
:100FC0009707F8F428173907D1F0D89ED001D99E99
:100FD000B00D1124A00FB11FAC91A43011F0A638B0
:100FE00071F4DC01AA0FBB1FA80FB91FAE0DBF1D06
:100FF0001296AC91BA1203C0CB01CC24C3940196D3
:10100000DECFC11006C00280F381E02D80818E7F8B
:1010100005C00280F381E02D8081816080832F5F95
:101020003F4F4D5F5F4FA9CF80818160808380916A
:10103000723E9091733EE881F98121813281A9014C
:1010400048535F4F4817590738F4821B930BAA2463
:10105000A394A3E0BA2E44C08217930710F080E057
:1010600004C1821B930B0197893C9105C0F3EFCF1C
:10107000885C9109E881F9812181328128533F4FB1
:10108000218332832381211196C02481222311F0F0
:1010900021502483E881F9812581222311F02150F8
:1010A00025838A809B80D40116962C911697211156
:1010B0001BC08A809B80F4012781211148C0EA81EE
:1010C000FB812381222361F020E030E0A0E0B0E04A
:1010D000EA81FB8140815181A417B50708F46EC0F5
:1010E000893C910528F6BBCF08811981F80124813C
:1010F0002111DFCFED90FC9060E070E040E050E027
:101100004E155F05F1F0EC81FD81E60FF71F2081A0
:10111000233011F0283081F424813581C280D380BE
:10112000D6011196CD90DC9012972C153D0520F438
:101130002F5F3F4F248335834F5F5F4F6A5F7F4F41
:10114000DFCFF4012681D80114962C93B2CF088109
:101150001981D80115962C912111B1CFE080F18031
:1011600060E070E040E050E04E155F05F1F0EC818A
:10117000FD81E60FF71F2081233011F0283081F424
:1011800024813581C280D380D6011196CD90DC9028
:101190001297C216D30620F42150310924833583D7
:1011A0004F5F5F4F6A5F7F4FDFCFF4012781D80128
:1011B00015962C9384CF2150238381CFA901440F0E
:1011C000551FEC81FD81E40FF51F6081653809F042
:1011D00047C06181662319F06150618341C0A082DC
:1011E0006C817D81FB01E40FF51F0280F381E02D0E
:1011F000B082EE81FF81E20FF31FD280DD2081F10A
:1012000040E050E000E010E0EA81FB816081718104
:101210000617170728F5EE81FF81E40FF51F62819D
:10122000D61219C0BA01660F771FEC81FD814F01FC
:10123000860E971EF401E280F380F701F080F0FE45
:101240000AC0F401A082EC81FD81E60FF71F028045
:10125000F381E02DB0820F5F1F4F4D5F5F4FD4CF02
:1012600011962D5F3F4F34CF8BE0DF91CF911F91CF
:101270000F91FF90EF90DF90CF90BF90AF909F9035
:101280008F907F906F905F904F903F902F90089538
:1012900095E09093763EE091B83EF091B93E01889A
:1012A000F289E02D309709F00994FFCFE091B83E24
:1012B000F091B93E0388F489E02D309709F0099444
:1012C00080E4E6CF8091B83E9091B93E0895CF93E7
:1012D0008093B83E9093B93E8091763E853039F048
:1012E000823028F08091743E882371F140C01092C2
:1012F000743EC0E0A091B83EB091B93E8C2F90E012
:10130000880F991F1196ED91FC911297E80FF91F24
:101310000190F081E02D309729F317962D913C91A3
:101320001897D901A80FB91F8D919C910995882311
:1013300029F08091743E8F5F8093743ECF5F8091DF
:10134000743E8823B9F2CECF82E08093763EE0915E
:10135000B83EF091B93E0784F089E02D309711F046
:10136000099508C085E08093763E81E001C08F5FDB
:101370008093743E8091743E882329F01092743ECD
:1013800080E8CF9185CFCF9108951F93CF93DF93BE
:10139000182FA091B83EB091B93E15962D913C9171
:1013A0001697D0E0F901ED0FF11DED0FF11D8081D1
:1013B0009181892B11F0DF5FF5CF53968D919C9130
:1013C0005497892B49F1812F90E0880F991FF901DB
:1013D000E80FF91F0190F081E02D3097E9F01B969E
:1013E0002D913C911C97D901A80FB91F8D919C910B
:1013F000009791F066E579E00995C82F811106C044
:1014000083E08093763E1092753E03C082E0809325
:10141000763E1D1720F001C0C2E082E839DF8C2F34
:10142000DF91CF911F910895E091B83EF091B93EC0
:101430000584F685E02D09941F93CF93DF931F92C7
:10144000CDB7DEB71982E091B83EF091B93E05887C
:10145000F689E02D309749F082E08093763ECE0108
:101460000196099583E08093763E8091743E8111C8
:101470002CC01981111129C084E08093763EA0917F
:10148000B83EB091B93E8091753E90E0880F991FAB
:101490001396ED91FC911497E80FF91F0190F081DC
:1014A000E02D19962D913C911A97309781F0D90132
:1014B000A80FB91F8D919C91099581113DC0809114
:1014C000753E8F5F8093753EDACF10E03CC010927E
:1014D000753EF901E10FF11DE10FF11D0190F08161
:1014E000E02D309759F00190F081E02D808187FF49
:1014F00003C09C9194609C931F5FEBCF1093753E4B
:1015000082E08093763E5796ED91FC915897309704
:1015100011F0099505C08091743E8F5F8093743EF1
:1015200010E08091743E882371F01092743E809197
:10153000753E8064ADDE07C08091743E8F5F8093FE
:10154000743E13E0EECF812F0F90DF91CF911F916A
:10155000089580917A3E90917B3EA091BA3EB091E1
:10156000BB3EED91FC9111974081518125E0289F70
:10157000B001299F700D112420E030E084179507F9
:10158000A8F41496ED91FC911597E20FF31FE60F66
:10159000F71FE0812B5F3F4FE0FD02C00196EECFC9
:1015A00080937A3E90937B3E80E0089510927A3E3D
:1015B00010927B3E81E00895BC01E091BA3EF0912B
:1015C000BB3E86E0869F9001879F300D1124A2814B
:1015D000B381A20FB31F11968C9180932A06A2812A
:1015E000B381A20FB31F8C918093260695E0969F3E
:1015F000A001979F500D1124A481B581A40FB51FA0
:1016000013968C9180931A06A481B581A40FB51FFF
:1016100014968C9180931B06A481B581A40FB51FED
:101620008C9181FD9C9384819581DC01A40FB51F71
:101630008C918C7169F4A281B381A20FB31F1496AF
:10164000AC91A295AF70B0E0AA59B3468C9101C09D
:101650008FE380931C06A281B381A20FB31F129661
:101660008C918B3110F48C5F01C08FE18093050663
:10167000A281B381A20FB31F15968C9180930106AE
:10168000A281B381A20FB31F13968C9182958F70A4
:101690008093190682819381FC01E20FF31F8381FD
:1016A0008F7080618093020680911806836080931A
:1016B000180681E88093000681E08093080608956B
:1016C0003F924F925F926F927F928F929F92AF92D2
:1016D000BF92CF92DF92EF92FF920F931F93CF931F
:1016E000DF938091793E882309F448C1A091BA3EE6
:1016F000B091BB3EC090BC3ED090BD3E00E010E03B
:1017000060E070E0E12CF12C80E033243394D1E8E8
:101710004D2E88248A94992493946D907C901197EF
:10172000F30120813181E216F30608F023C1E601BE
:10173000299139916E011496ED91FC911597E60F60
:10174000F71F40814C7150E0569547955695479547
:101750004115510521F041305105B9F002C11296F1
:10176000CD91DC911397C00FD11F4C814F709D819B
:10177000491710F4941B01C090E002C036952795DC
:101780009A95E2F721833283EDC012964D915C91D8
:101790001397400F511FEA010D8002C0369527951F
:1017A0000A94E2F721833283A380B4802115D2E02A
:1017B0003D0720F02F5F314091E005C0A401421B9E
:1017C000530B9A0190E0E3015A80D0E45D1205C00A
:1017D00036952795992319F009C0992339F04FEFD1
:1017E000A416B40631F440828EE007C077247394C7
:1017F00001C0712C2A30310590F41496ED91FC91C2
:101800001597E60FF71F908197FF30821496ED91A0
:10181000FC911597E60FF71FA382B482A3C0E501E0
:10182000CD2FDD27C295CF709C2FA50144275F7077
:10183000652EA501407F5527529542954F7045274B
:101840005F7045275A2D5F70A52EC43030F093701D
:10185000D695C795D695C7959C0F71103CC050E89A
:10186000550D523010F456E007C053E005C09517EF
:1018700068F49F5F2F5C3109203D3105C0F706C039
:10188000CFE06C1649F063942551310926313105BA
:10189000B8F7DFE06D120EC0951720F49F5FD5E01A
:1018A0006D2E08C0CFE06C2E05C04F3049F04F5F61
:1018B0002250310923303105C0F74F3009F065C09F
:1018C0004FE0641681F1639445E05FC0992361F0B5
:1018D00091502F5C3109203D3105C0F705C06620CD
:1018E00041F06A942551310926313105C0F7611064
:1018F0000DC0992321F091505AE0652E07C0612C4C
:1019000005C0442341F041502250310923303105B4
:10191000C0F7411110C06620E9F16A944AE0233013
:101920003105C8F608C059132FC02330310540F1E6
:101930004FE0A42E4FE0943018F0990F990F995072
:10194000C0E14C9FA001112456294A29C92FD0E09B
:10195000DC2FCC27D295D07F4C2B5D2B4383548337
:1019600001C0FFCFDFEFED1AFD0A6B5F7F4F0A5F0B
:101970001F4FD3CE92E09093793E0EC083E00CC00F
:101980004FE02FE0A22ED7CF4FE02330310508F0F3
:1019900073CFD1CF40E0CFCFDF91CF911F910F9187
:1019A000FF90EF90DF90CF90BF90AF909F908F907F
:1019B0007F906F905F904F903F900895CF93DC01A0
:1019C000892B79F1ED91FC9111976081718140E053
:1019D00050E020E030E090E02617370779F01296CB
:1019E000ED91FC911397E40FF51FC08181818C2B41
:1019F000982B2F5F3F4F4A5F5F4FEECF992399F0AF
:101A00008091793E811106C09093220681E08093F7
:101A1000793E05C080912206982B9093220680E0A3
:101A200003C08BE001C082E0CF910895009731F0B0
:101A30008093BC3E9093BD3E80E008958BE0089576
:101A40006115710591F1009781F12091793E222372
:101A500071F1243071F18093BA3E9093BB3E609354
:101A6000773E7093783E20EC20931806DC01ED91D0
:101A7000FC912281203421F420911806206205C0B7
:101A8000203841F4209118062862209318061092FD
:101A90001E0613C0213879F420911806286220937D
:101AA000180626E820931E0608C08BE0089583E000
:101AB000089581E0089582E00895DC01ED91FC91A4
:101AC0008481803108F080E18093030681E0809377
:101AD0000B0680930A0610927A3E10927B3E39DD07
:101AE00081110AC084E08093793E80917A3E909182
:101AF0007B3E62DD80E0089582E08093793E089528
:101B00000097C9F0DC01ED91FC91119720813181A2
:101B10002617370790F045E0469F9001479F300D0C
:101B200011241496ED91FC911597E20FF31F81E0BB
:101B3000808380E008958BE0089582E00895FC01A1
:101B4000892BD1F1A081B1818D919C91119786173C
:101B50009707A0F112969C910480F581E02D9034B6
:101B600059F485E0869FD001879FB00D1124AE0FF8
:101B7000BF1F84E392E00DC09058923080F485E05E
:101B8000869FD001879FB00D1124AE0FBF1F87E63F
:101B900095E013968D939C93149780E001C082E0AA
:101BA00095E0969F9001979F300D1124E20FF31F4F
:101BB00090819260908308958BE0089582E008956B
:101BC00010920006409110065091110680917A3EC5
:101BD00090917B3E9C01220F331FE091BC3EF0911F
:101BE000BD3EE20FF31F40835183019680937A3EFE
:101BF00090937B3EAEDC811108C084E08093793EF7
:101C000080917A3E90917B3ED7CCE091773EF091E7
:101C1000783E0994AA1BBB1B51E107C0AA1FBB1F3A
:101C2000A617B70710F0A61BB70B881F991F5A9568
:101C3000A9F780959095BC01CD01089597FB072EDB
:101C400016F4009406D077FD08D0E4DF07FC05D039
:101C50003EF4909581959F4F0895709561957F4FC3
:061C60000895F894FFCF87
:061C66003F1C0B05030109
:101C6C0064002001280046005FB400864A03EB00A4
:101C7C00000000000000AA55016EA0333E00004891
:101C8C003E0000200D0000483E0000A4050000DED0
:101C9C000C0000893E3E3EB23E3B3E64010001001A
:101CAC00040F050005041400543E4E3E903E000106
:0A1CBC000100100401008033100045
:00000001FF
