S0150000417474696E79383134436F64652E737265637E
S113000019C033C032C031C030C02FC02EC031C07F
S11300102CC02BC02AC029C028C027C026C025C098
S11300204FC0B0C322C021C020C01FC01EC01DC00D
S11300301CC01BC011241FBECFEFCDBFDFE3DEBF4A
S11300401EE3A0E0BEE3E4E7FBE102C005900D92ED
S1130050A835B107D9F72EE3A8E5BEE301C01D9288
S1130060AB3AB207E1F72FD180CDCACF08D4D0D2B2
S113007008951F920F920FB60F9211242F933F935E
S11300804F935F936F937F938F939F93AF93BF939C
S1130090EF93FF9336D38ED081E080935301FF9189
S11300A0EF91BF91AF919F918F917F916F915F91EC
S11300B04F913F912F910F900FBE0F901F90189565
S11300C01F920F920FB60F9211242F933F934F93C9
S11300D05F936F937F938F939F93AF93BF93EF93AC
S11300E0FF93E0E7F6E0878181E0878356D0FF91B4
S11300F0EF91BF91AF919F918F917F916F915F919C
S11301004F913F912F910F900FBE0F901F90189514
S11301108091043E9091053E089581E080935B3E7A
S113012008958091013E813089F41092013E289A0D
S11301302FE53AEE80E0215030408040E1F700C0E6
S11301400000289881E08093603E089581E08093C8
S1130150013E299A9FE52AEE30E09150204030403C
S1130160E1F700C0000029988093603E1092613E40
S11301701092623E1092633E1092643E0895E0E550
S1130180F0E09081997F892B8083808181608083D6
S1130190889580818E7F80830895289A2FE58AEE42
S11301A090E0215080409040E1F700C00000289882
S11301B0A895FECF8091593E90915A3E01968F3179
S11301C0910528F48093593E90935A3E18C010929A
S11301D0593E10925A3E0E9A87E893E10197F1F73F
S11301E000C00000F2D287E893E10197F1F700C064
S11301F000008091770684FFD0DFF1D20E988091C1
S1130200673E813049F48091653E9091663E019647
S11302108093653E9093663E8091603E813049F4C0
S113022080915E3E90915F3E019680935E3E9093F6
S11302305F3E80915E3E90915F3E049730F0109255
S11302405E3E10925F3E1092603E8091013E8111AD
S113025023C08091613E9091623EA091633EB09133
S1130260643E0196A11DB11D8A3F25E19207A105B7
S1130270B10548F48093613E9093623EA093633E3F
S1130280B093643E08951092613E1092623E1092C3
S1130290633E1092643E45DF08952091603E213014
S11302A079F020915C3E30915D3E821B930B9C0162
S11302B022F422273327281B390B822F932F0895EA
S11302C080E090E00895D2DEDD24D3940F2EF3E293
S11302D0EF2EF12CF02D00E510E0A895DAD18091F5
S11302E06A3E882309F495C08091603E813009F408
S11302F090C080E090E010D2EC0180E090E019D250
S11303009E01281B390BC90120915C3E30915D3E52
S1130310AC01421B530B9A0180935C3E90935D3E6B
S1130320CA01552324F488279927841B950B4091EF
S1130330043E5091053E8417950728F012161306C3
S113034024F122E025C02091023E3091033E821721
S1130350930750F04F5F5F4F4093043E5093053E28
S11303601092583E20E014C08091583E8F5F8093D5
S1130370583E843660F0415051094093043E5093F6
S1130380053E1092583E20E003C02D2D01C020E010
S11303908091043E9091053E8035910528F00093AC
S11303A0043E1093053E42C0849708F03FC0E0929B
S11303B0043EF092053E3AC0213009F04AC0D09282
S11303C0673E47C0213029F41092653E1092663E84
S11303D040C08091653E9091663E0F9738F0109230
S11303E0653E1092663E1092673E33C0223089F516
S11303F08091653E9091663E1092653E1092663EF5
S11304001092673E10926A3E10925B3E029708F08B
S113041088DE80915B3E811160CF80E090E0AFDEAA
S11304205CCF10926A3E10925B3EF3CF8091043E03
S11304309091053E969587958093023E9093033E56
S11304408091673E882309F4B7CF813009F4BACF8D
S1130450E8CF10926A3E10925B3EDBCF0895CF93B3
S1130460C82F65D28823E9F38C2F6FD266D281110D
S1130470FDCFCF910895EF92FF920F931F93CF93E7
S1130480DF9300D0CDB7DEB78091683E8F7079F4EA
S113049006E01EE30F2EF9E1EF2EFEE3FF2EF02D12
S11304A0F80181918F01DBDFE016F106C9F785E5DC
S11304B0D6DF8091683ED3DF19821A8289819A81BE
S11304C0892B09F046C089819A8126D1192FC7DF6B
S11304D0812FC5DF89819A812CD11ADE192FBFDFC4
S11304E0812FBDDF89819A8117D18C0189819A81FD
S11304F020D19801281B390BC901CFDE192FAFDF9A
S1130500812FADDF89819A8121D1192FA8DF812F15
S1130510A6DF89819A8127D188231CF481E09FDF9B
S113052002C080E09CDF89819A81FC01EE0FFF1FED
S11305308E0F9F1FFC01E75CF14C808190DF898165
S11305409A81019689839A8389819A81892B09F4F6
S1130550BACF8091693E83DF8091683E91E0980F25
S11305609093683E7CDF8AEA7ADF0F900F90DF91E8
S1130570CF911F910F91FF90EF900895E6E8FEE36D
S11305808081826080830895E091313EF091323E13
S11305908081882344F4E091843EF091853E8081FB
S11305A08460808303C081E080936A3E64DF0895A1
S11305B0882324F481E08093693E09C086FD03C04A
S11305C01092693E04C08F708E5F8093693E53DF42
S11305D0089582E89EE3D5D960E070E086E49EE366
S11305E03ADA60E070E086E49EE354DA4DE75EE3D5
S11305F060E081E39EE334D20895E0E4F1E0918188
S113060092FDFDCF90E080934A0190934B010895B1
S113061080E2F3DFE4E1F4E08081877F8083E6E831
S1130620FEE310828DE29EE38183928389E29EE35E
S11306308383948381E29EE38583968385E29EE3AC
S11306408783908789E19EE3818792878DE19EE38A
S1130650838794878BE09BE08587968789EE92E079
S11306608787908B88ED92E0818B928B8EEB92E062
S1130670838B948B158A168A84EC92E0878B908FF7
S1130680CF01D0D5CAD58093843E9093853EE6DED3
S11306900895E091843EF091853E808180FF0BC0F7
S11306A080E01ED6811107C0E091843EF091853E22
S11306B080818E7F8083E091843EF091853E8081AD
S11306C081FF0EC05CD6811102C061D602C080E8F1
S11306D06FDFE091843EF091853E80818D7F808341
S11306E0E091843EF091853E808182FF09C0816063
S11306F08083E091843EF091853E80818B7F80836E
S113070008950BDDE6E8FEE38081816080838091BB
S1130710003E90E09AD108959C01220F331F220FCE
S1130720331F820F931FFC01E358F14C81819281A6
S113073008959C01220F331F820F931FFC01EE0FBB
S1130740FF1FE156F14C8481958108959C01220F8D
S1130750331F220F331F820F931FFC01E358F14C08
S11307608381948108959C01220F331F820F931F6C
S1130770880F991FE091353EF091363EE80FF91F3E
S1130780808108951F920F920FB60F9211242F9318
S11307903F934F935F936F937F938F939F93AF9305
S11307A0BF93EF93FF93B7D9FF91EF91BF91AF91AF
S11307B09F918F917F916F915F914F913F912F9175
S11307C00F900FBE0F901F901895E0E7F6E081E0C0
S11307D0868382E0828381E2808380E00895E0E77B
S11307E0F6E016821082089580E0089542E068EDF4
S11307F088E790E07AD041E068ED81E690E075D03A
S113080040E068ED80E690E070D0E0E6F0E08381BF
S113081080FDFDCF80E00895789480E00895E0E1C4
S1130820F4E0808188608193E83184E0F807C9F7B7
S1130830E0E3F4E0808188608193E83384E0F807A2
S1130840C9F7E0E5F4E0808188608193E83584E0CD
S1130850F807C9F70895E7E1F4E08081887F8460B0
S113086080838081877F808308952398E3E3F4E085
S11308708081877F8083229A2A984FD00895CFDF82
S11308800098E0E1F4E08081886080830298E2E1EE
S1130890F4E08081886080830398E3E1F4E0808160
S11308A0886080830598E5E1F4E080818860808336
S11308B0069A0E98209A2898219A29982298E2E379
S11308C0F4E08081886080832398E3E3F4E080810E
S11308D0886080838BDF81E00CD03FD0C6DFBBDF34
S11308E044D09ADF15D080DF0895FC0164BF4083B3
S11308F00895E0E4F1E081898111FDCFE0E4F1E0C5
S1130900178289E4808B158A81E0828B80E00895C8
S113091083E08093500080E00895E0E0F8E08BE508
S113092091E08087918780E4868380E008958091B8
S1130930040885FB882780F908958091040886FBC4
S1130940882780F991E089270895E0E0F8E0948110
S113095095FFFDCF80930208089584E08093A00062
S113096081E08093A10080E0089548E068ED80E094
S113097091E0BBDF80E00895CF92DF92FF920F9366
S11309801F93CF93DF93EC01AE81BF81EB01CC0FBA
S1130990DD1FC60FD71FCA0FDB1FFA80FC0144817D
S11309A05581E6E0E69F9001E79F300D11248A010E
S11309B0020F131FF80122813381F9012181328151
S11309C0F80104811581201B310BE8812E1B3109AC
S11309D0EC01EA81FB8100811181FA0140E050E0E1
S11309E04017510739F146175707F9F012968C91C1
S11309F01297F8121AC0808185588230E8F0C480BA
S1130A00D58082819381EC0189819A81C816D906A7
S1130A1060F48C199D09CC91D0E0C817D90728F44B
S1130A208C1B9D0B2817390738F04F5F5F4F1396C7
S1130A303696D6CF80E001C081E0DF91CF911F913F
S1130A400F91FF90DF90CF90089520916B3E3091ED
S1130A506C3E820F931F80936B3E90936C3E08957F
S1130A600097D9F041155105C1F026E0629FB0010D
S1130A701124DC011496ED91FC911597E60FF71FF4
S1130A8021E0208314968D919C911597FC01E60F2B
S1130A90F71F4283538380E008958BE008952F92DB
S1130AA03F924F925F926F927F928F929F92AF92FA
S1130AB0BF92CF92DF92EF92FF920F931F93CF9347
S1130AC0DF93009709F47BC3EC01A12CB12C812C9A
S1130AD0912C212CD12C33E0C32E45E8642E56E80A
S1130AE0752E67E0362E72E0472EE8E05E2EEA812E
S1130AF0FB81808191818816990608F0A3C1750154
S1130B00EE0CFF1C0C811D810E0D1F1DD8018C9154
S1130B10843009F4A1C038F4823001F108F049C0EE
S1130B20813059F088C1853809F4C0C0863809F489
S1130B30F4C0873009F07FC135C1D8011296ED9118
S1130B40FC91139780818E7109F067C14C928C815E
S1130B509D81FC01EE0DFF1D51825FC1F8012181D1
S1130B60222329F10280F381E02D253020F08181B8
S1130B709281D8010EC0D80114968D919C9115973D
S1130B80418152818417950769F04817590730F459
S1130B90019714968D939C93159704C00196F801C0
S1130BA0848395832150D80111962C9336C1F80182
S1130BB02FC1D80114962D913C91159712968D91C1
S1130BC09C911397DC0111964D915C911297241717
S1130BD0350709F430C18E819F8142175307E0F431
S1130BE0241B350BDC01AA0DBB1D8C9190E0058004
S1130BF002C0959587950A94E2F799272817390733
S1130C0008F419C18481882309F415C1F8013082DC
S1130C10EA81FB81248119C0FC01EA0DFB1D421B02
S1130C20530B808190E04817590708F404C182816E
S1130C30882329F0B401CE019FDE8111FCC0E4E0D9
S1130C40D801EC93EA81FB8122818C819D81FC0196
S1130C50EE0DFF1D2183E1C0D80114962D913C9126
S1130C6015971296ED91FC911397818192818217C9
S1130C70930708F4D6C0EE81FF81EA0DFB1D821BA9
S1130C80930B208130E02817390708F0AEC0828129
S1130C90882329F0B401CE016FDE8111CCC0F801A4
S1130CA08181882309F467C08150B6C0A881B981C5
S1130CB0808513968C93EC81FD81EE0DFF1D44819C
S1130CC05581A281B38111968D919C9112978417BD
S1130CD09507C0F0AE81BF81AA0DBB1D6C91262F74
S1130CE030E011967C917F5F02C0359527957A9507
S1130CF0E2F7841B950B621B262F30E02817390777
S1130D0008F497C07082EA81FB8122818C819D81E5
S1130D10FC01EE0DFF1D218342C0D80114966D9194
S1130D207C9115971296ED91FC9113972181328154
S1130D302617370758F411968C911197811102C028
S1130D40CC9277C08150F801818373C0EE81FF811A
S1130D50EA0DFB1D8081482F50E091819F5F02C006
S1130D60559547959A95E2F7261B370B841B90E01F
S1130D708217930760F4D8016C92EA81FB81238186
S1130D808C819D81FC01EE0DFF1D218352C0F80171
S1130D908181811102C0C0824CC081508183222490
S1130DA023943BC0D80114962D913C91159712962B
S1130DB08D919C911397DC0111968D919C911297C2
S1130DC08217930768F5281B390BAE81BF81AA0DE2
S1130DD0BB1D8C9190E0058002C0959587950A947F
S1130DE0E2F799272817390718F4F801C0821AC0C6
S1130DF0D80111968C91119781110CC081E08C93CC
S1130E008C819D81FC01EE0DFF1D0280F381E02D9C
S1130E10C08211C08150F8018183DD24D3940BC0BA
S1130E20D801CC928C819D81FC01EE0DFF1D1182B5
S1130E3002C022242394BFEF8B1A9B0AE3E0AE0E78
S1130E40B11C55CEE881F981808187FF23C040E041
S1130E5050E020E030E0EA81FB8180819181281715
S1130E60390798F4EC81FD81E40FF51FA281B38169
S1130E708C9180FD05C09081977F11F081608C93E7
S1130E802F5F3F4F4A5F5F4FE6CFE881F981808152
S1130E908F778083D11007C0E881F98121106FC05A
S1130EA080818E7F6EC0EA81FB8181858823A1F3D6
S1130EB0E881F981808180688083EA81FB81818572
S1130EC0813051F740E050E020E030E096E0D92E48
S1130ED0EA81FB816081718126173707E8F60C816E
S1130EE01D81FA01EE0FFF1FE00FF11F8081982F83
S1130EF0977FA1F1853811F08330B1F5EE80FF8042
S1130F00D701A40FB51F1296BC90BB2039F180E025
S1130F1090E0C12C86179707F8F428173907D1F009
S1130F20D89ED001D99EB00D1124A00FB11FAC9151
S1130F30A43011F0A63871F4DC01AA0FBB1FA80F6E
S1130F40B91FAE0DBF1D1296AC91BA1203C0CB01EE
S1130F50CC24C3940196DECFC11006C00280F38175
S1130F60E02D80818E7F05C00280F381E02D808199
S1130F70816080832F5F3F4F4D5F5F4FA9CF80819A
S1130F808160808380916B3E90916C3EE881F98111
S1130F9021813281A90148535F4F4817590738F41A
S1130FA0821B930BAA24A394A3E0BA2E44C08217F5
S1130FB0930710F080E004C1821B930B0197893CD6
S1130FC09105C0F3EFCF885C9109E881F981218113
S1130FD0328128533F4F218332832381211196C0CC
S1130FE02481222311F021502483E881F981258171
S1130FF0222311F0215025838A809B80D4011696E8
S11310002C91169721111BC08A809B80F4012781A3
S1131010211148C0EA81FB812381222361F020E071
S113102030E0A0E0B0E0EA81FB8140815181A41767
S1131030B50708F46EC0893C910528F6BBCF08813A
S11310401981F80124812111DFCFED90FC9060E03B
S113105070E040E050E04E155F05F1F0EC81FD8159
S1131060E60FF71F2081233011F0283081F424810A
S11310703581C280D380D6011196CD90DC90129731
S11310802C153D0520F42F5F3F4F248335834F5F9C
S11310905F4F6A5F7F4FDFCFF4012681D80114963A
S11310A02C93B2CF08811981D80115962C91211166
S11310B0B1CFE080F18060E070E040E050E04E1598
S11310C05F05F1F0EC81FD81E60FF71F20812330ED
S11310D011F0283081F424813581C280D380D60177
S11310E01196CD90DC901297C216D30620F42150AD
S11310F03109248335834F5F5F4F6A5F7F4FDFCFB2
S1131100F4012781D80115962C9384CF2150238391
S113111081CFA901440F551FEC81FD81E40FF51F18
S11311206081653809F047C06181662319F0615018
S1131130618341C0A0826C817D81FB01E40FF51FB6
S11311400280F381E02DB082EE81FF81E20FF31F74
S1131150D280DD2081F140E050E000E010E0EA813F
S1131160FB81608171810617170728F5EE81FF81E5
S1131170E40FF51F6281D61219C0BA01660F771FFA
S1131180EC81FD814F01860E971EF401E280F3800D
S1131190F701F080F0FE0AC0F401A082EC81FD8129
S11311A0E60FF71F0280F381E02DB0820F5F1F4F1F
S11311B04D5F5F4FD4CF11962D5F3F4F34CF8BE0FF
S11311C0DF91CF911F910F91FF90EF90DF90CF901F
S11311D0BF90AF909F908F907F906F905F904F9053
S11311E03F902F90089595E090936F3EE091A53E37
S11311F0F091A63E0188F289E02D309709F0099418
S1131200FFCFE091A53EF091A63E0388F489E02D3E
S1131210309709F0099480E4E6CF8091A53E90913F
S1131220A63E0895CF938093A53E9093A63E8091C9
S11312306F3E853039F0823028F080916D3E8823EE
S113124071F140C010926D3EC0E0A091A53EB091F6
S1131250A63E8C2F90E0880F991F1196ED91FC917A
S11312601297E80FF91F0190F081E02D309729F3D0
S113127017962D913C911897D901A80FB91F8D91FC
S11312809C910995882329F080916D3E8F5F80930E
S11312906D3ECF5F80916D3E8823B9F2CECF82E060
S11312A080936F3EE091A53EF091A63E0784F089BD
S11312B0E02D309711F0099508C085E080936F3ECA
S11312C081E001C08F5F80936D3E80916D3E8823E5
S11312D029F010926D3E80E8CF9185CFCF9108958B
S11312E01F93CF93DF93182FA091A53EB091A63EF4
S11312F015962D913C911697D0E0F901ED0FF11D53
S1131300ED0FF11D80819181892B11F0DF5FF5CF05
S113131053968D919C915497892B49F1812F90E09C
S1131320880F991FF901E80FF91F0190F081E02D52
S11313303097E9F01B962D913C911C97D901A80F89
S1131340B91F8D919C91009791F061E079E0099526
S1131350C82F811106C083E080936F3E10926E3EC9
S113136003C082E080936F3E1D1720F001C0C2E0ED
S113137082E839DF8C2FDF91CF911F910895E0919E
S1131380A53EF091A63E0584F685E02D09941F93B1
S1131390CF93DF931F92CDB7DEB71982E091A53EBC
S11313A0F091A63E0588F689E02D309749F082E059
S11313B080936F3ECE010196099583E080936F3E42
S11313C080916D3E81112CC01981111129C084E0D6
S11313D080936F3EA091A53EB091A63E80916E3E53
S11313E090E0880F991F1396ED91FC911497E80FE4
S11313F0F91F0190F081E02D19962D913C911A97D7
S1131400309781F0D901A80FB91F8D919C9109954E
S113141081113DC080916E3E8F5F80936E3EDACF26
S113142010E03CC010926E3EF901E10FF11DE10F96
S1131430F11D0190F081E02D309759F00190F08179
S1131440E02D808187FF03C09C9194609C931F5F73
S1131450EBCF10936E3E82E080936F3E5796ED91F2
S1131460FC915897309711F0099505C080916D3E15
S11314708F5F80936D3E10E080916D3E882371F004
S113148010926D3E80916E3E8064ADDE07C0809107
S11314906D3E8F5F80936D3E13E0EECF812F0F90F2
S11314A0DF91CF911F9108958091733E9091743E86
S11314B0A091A73EB091A83EED91FC911197408177
S11314C0518125E0289FB001299F700D112420E04F
S11314D030E084179507A8F41496ED91FC911597C4
S11314E0E20FF31FE60FF71FE0812B5F3F4FE0FD94
S11314F002C00196EECF8093733E9093743E80E0D9
S113150008951092733E1092743E81E00895BC01D8
S1131510E091A73EF091A83E86E0869F9001879FC8
S1131520300D1124A281B381A20FB31F11968C91A7
S113153080932A06A281B381A20FB31F8C9180935A
S1131540260695E0969FA001979F500D1124A48133
S1131550B581A40FB51F13968C9180931A06A481AC
S1131560B581A40FB51F14968C9180931B06A4819A
S1131570B581A40FB51F8C9181FD9C9384819581C5
S1131580DC01A40FB51F8C918C7169F4A281B38125
S1131590A20FB31F1496AC91A295AF70B0E0A259FC
S11315A0B4468C9101C08FE380931C06A281B38161
S11315B0A20FB31F12968C918B3110F48C5F01C073
S11315C08FE180930506A281B381A20FB31F159604
S11315D08C9180930106A281B381A20FB31F13964D
S11315E08C9182958F708093190682819381FC017E
S11315F0E20FF31F83818F708061809302068091D4
S1131600180683608093180681E88093000681E0C1
S11316108093080608953F924F925F926F927F9253
S11316208F929F92AF92BF92CF92DF92EF92FF92EE
S11316300F931F93CF93DF938091723E882309F415
S113164048C1A091A73EB091A83EC090A93ED090B9
S1131650AA3E00E010E060E070E0E12CF12C80E0B4
S113166033243394D1E84D2E88248A949924939476
S11316706D907C901197F30120813181E216F3067D
S113168008F023C1E601299139916E011496ED9178
S1131690FC911597E60FF71F40814C7150E0569569
S11316A04795569547954115510521F0413051050F
S11316B0B9F002C11296CD91DC911397C00FD11FDE
S11316C04C814F709D81491710F4941B01C090E028
S11316D002C0369527959A95E2F721833283EDC0AF
S11316E012964D915C911397400F511FEA010D80A2
S11316F002C0369527950A94E2F721833283A380AA
S1131700B4802115D2E03D0720F02F5F314091E0F5
S113171005C0A401421B530B9A0190E0E3015A80D7
S1131720D0E45D1205C036952795992319F009C0B8
S1131730992339F04FEFA416B40631F440828EE0B9
S113174007C07724739401C0712C2A30310590F4BA
S11317501496ED91FC911597E60FF71F908197FF72
S113176030821496ED91FC911597E60FF71FA38232
S1131770B482A3C0E501CD2FDD27C295CF709C2F85
S1131780A50144275F70652EA501407F552752951A
S113179042954F7045275F7045275A2D5F70A52EDF
S11317A0C43030F09370D695C795D695C7959C0FE5
S11317B071103CC050E8550D523010F456E007C08B
S11317C053E005C0951768F49F5F2F5C3109203DF5
S11317D03105C0F706C0CFE06C1649F0639425517B
S11317E0310926313105B8F7DFE06D120EC09517C7
S11317F020F49F5FD5E06D2E08C0CFE06C2E05C0AD
S11318004F3049F04F5F2250310923303105C0F782
S11318104F3009F065C04FE0641681F1639445E0F0
S11318205FC0992361F091502F5C3109203D31054F
S1131830C0F705C0662041F06A942551310926316C
S11318403105C0F761100DC0992321F091505AE081
S1131850652E07C0612C05C0442341F0415022503D
S1131860310923303105C0F7411110C06620E9F178
S11318706A944AE023303105C8F608C059132FC0D2
S11318802330310540F14FE0A42E4FE0943018F09E
S1131890990F990F9950C0E14C9FA001112456292A
S11318A04A29C92FD0E0DC2FCC27D295D07F4C2BEE
S11318B05D2B4383548301C0FFCFDFEFED1AFD0A94
S11318C06B5F7F4F0A5F1F4FD3CE92E09093723EBF
S11318D00EC083E00CC04FE02FE0A22ED7CF4FE024
S11318E02330310508F073CFD1CF40E0CFCFDF9163
S11318F0CF911F910F91FF90EF90DF90CF90BF9009
S1131900AF909F908F907F906F905F904F903F909B
S11319100895CF93DC01892B79F1ED91FC91119716
S11319206081718140E050E020E030E090E02617D3
S1131930370779F01296ED91FC911397E40FF51F98
S1131940C08181818C2B982B2F5F3F4F4A5F5F4F63
S1131950EECF992399F08091723E811106C0909345
S1131960220681E08093723E05C080912206982B66
S11319709093220680E003C08BE001C082E0CF9107
S11319800895009731F08093A93E9093AA3E80E099
S113199008958BE008956115710591F1009781F127
S11319A02091723E222371F1243071F18093A73E7D
S11319B09093A83E6093703E7093713E20EC209308
S11319C01806DC01ED91FC912281203421F4209150
S11319D01806206205C0203841F4209118062862B8
S11319E02093180610921E0613C0213879F4209112
S11319F0180628622093180626E820931E0608C0BD
S1131A008BE0089583E0089581E0089582E00895CD
S1131A10DC01ED91FC918481803108F080E18093B8
S1131A20030681E080930B0680930A061092733EAE
S1131A301092743E39DD81110AC084E08093723EB5
S1131A408091733E9091743E62DD80E0089582E05F
S1131A508093723E08950097C9F0DC01ED91FC91EA
S1131A601197208131812617370790F045E0469F72
S1131A709001479F300D11241496ED91FC91159718
S1131A80E20FF31F81E0808380E008958BE00895E6
S1131A9082E00895FC01892BD1F1A081B1818D915F
S1131AA09C91119786179707A0F112969C91048038
S1131AB0F581E02D903459F485E0869FD001879F0D
S1131AC0B00D1124AE0FBF1F84E392E00DC09058F7
S1131AD0923080F485E0869FD001879FB00D112459
S1131AE0AE0FBF1F87E695E013968D939C931497D2
S1131AF080E001C082E095E0969F9001979F300DB1
S1131B001124E20FF31F90819260908308958BE07B
S1131B10089582E0089510920006409110065091B5
S1131B2011068091733E9091743E9C01220F331FE5
S1131B30E091A93EF091AA3EE20FF31F4083518346
S1131B4001968093733E9093743EAEDC811108C07D
S1131B5084E08093723E8091733E9091743ED7CC22
S1111B60E091703EF091713E0994F894FFCF2D
S1091B6E3F1C0B050301FE
S1131B742001190032005FB400864A03EB00000020
S1131B8400000000AA55016EA0313E0000463E004C
S1131B9400CB0C0000463E00004F050000890C00F9
S1131BA400763E3C3E9F3E393E6401000100040F32
S1131BB4050005041400523E4C3E7D3E0001010024
S10B1BC400040100803310004D
S9030000FC
